{
  "contractName": "Admin",
  "abi": [
    {
      "inputs": [
        {
          "internalType": "string",
          "name": "_Admin",
          "type": "string"
        },
        {
          "internalType": "uint256",
          "name": "_password",
          "type": "uint256"
        },
        {
          "internalType": "uint256",
          "name": "_Phoneno",
          "type": "uint256"
        }
      ],
      "stateMutability": "nonpayable",
      "type": "constructor"
    },
    {
      "anonymous": false,
      "inputs": [
        {
          "indexed": false,
          "internalType": "string",
          "name": "compeny_name",
          "type": "string"
        },
        {
          "indexed": false,
          "internalType": "string",
          "name": "regby",
          "type": "string"
        },
        {
          "indexed": false,
          "internalType": "string",
          "name": "id",
          "type": "string"
        },
        {
          "indexed": false,
          "internalType": "string",
          "name": "mail",
          "type": "string"
        },
        {
          "indexed": false,
          "internalType": "uint256",
          "name": "mobile_number",
          "type": "uint256"
        },
        {
          "indexed": false,
          "internalType": "string",
          "name": "homeaddress",
          "type": "string"
        },
        {
          "indexed": false,
          "internalType": "string",
          "name": "city",
          "type": "string"
        },
        {
          "indexed": false,
          "internalType": "enum Admin.st",
          "name": "",
          "type": "uint8"
        }
      ],
      "name": "Distributer",
      "type": "event"
    },
    {
      "anonymous": false,
      "inputs": [
        {
          "indexed": false,
          "internalType": "string",
          "name": "compeny_name",
          "type": "string"
        },
        {
          "indexed": false,
          "internalType": "string",
          "name": "regby",
          "type": "string"
        },
        {
          "indexed": false,
          "internalType": "string",
          "name": "id",
          "type": "string"
        },
        {
          "indexed": false,
          "internalType": "string",
          "name": "mail",
          "type": "string"
        },
        {
          "indexed": false,
          "internalType": "uint256",
          "name": "mobile_number",
          "type": "uint256"
        },
        {
          "indexed": false,
          "internalType": "string",
          "name": "homeaddress",
          "type": "string"
        },
        {
          "indexed": false,
          "internalType": "string",
          "name": "city",
          "type": "string"
        },
        {
          "indexed": false,
          "internalType": "enum Admin.st",
          "name": "",
          "type": "uint8"
        }
      ],
      "name": "Manufacture",
      "type": "event"
    },
    {
      "anonymous": false,
      "inputs": [
        {
          "indexed": false,
          "internalType": "string",
          "name": "compeny_name",
          "type": "string"
        },
        {
          "indexed": false,
          "internalType": "string",
          "name": "regby",
          "type": "string"
        },
        {
          "indexed": false,
          "internalType": "string",
          "name": "id",
          "type": "string"
        },
        {
          "indexed": false,
          "internalType": "string",
          "name": "mail",
          "type": "string"
        },
        {
          "indexed": false,
          "internalType": "uint256",
          "name": "mobile_number",
          "type": "uint256"
        },
        {
          "indexed": false,
          "internalType": "string",
          "name": "homeaddress",
          "type": "string"
        },
        {
          "indexed": false,
          "internalType": "string",
          "name": "city",
          "type": "string"
        },
        {
          "indexed": false,
          "internalType": "enum Admin.st",
          "name": "",
          "type": "uint8"
        }
      ],
      "name": "Retailer",
      "type": "event"
    },
    {
      "anonymous": false,
      "inputs": [
        {
          "indexed": false,
          "internalType": "string",
          "name": "compeny_name",
          "type": "string"
        },
        {
          "indexed": false,
          "internalType": "string",
          "name": "regby",
          "type": "string"
        },
        {
          "indexed": false,
          "internalType": "string",
          "name": "id",
          "type": "string"
        },
        {
          "indexed": false,
          "internalType": "string",
          "name": "mail",
          "type": "string"
        },
        {
          "indexed": false,
          "internalType": "uint256",
          "name": "mobile_number",
          "type": "uint256"
        },
        {
          "indexed": false,
          "internalType": "string",
          "name": "homeaddress",
          "type": "string"
        },
        {
          "indexed": false,
          "internalType": "string",
          "name": "city",
          "type": "string"
        },
        {
          "indexed": false,
          "internalType": "enum Admin.st",
          "name": "",
          "type": "uint8"
        }
      ],
      "name": "Supplier",
      "type": "event"
    },
    {
      "anonymous": false,
      "inputs": [
        {
          "indexed": false,
          "internalType": "string",
          "name": "compeny_name",
          "type": "string"
        },
        {
          "indexed": false,
          "internalType": "uint256",
          "name": "reqno",
          "type": "uint256"
        },
        {
          "indexed": false,
          "internalType": "string",
          "name": "reqid",
          "type": "string"
        },
        {
          "indexed": false,
          "internalType": "string",
          "name": "mail",
          "type": "string"
        },
        {
          "indexed": false,
          "internalType": "uint256",
          "name": "mobile_number",
          "type": "uint256"
        },
        {
          "indexed": false,
          "internalType": "string",
          "name": "haddress",
          "type": "string"
        },
        {
          "indexed": false,
          "internalType": "string",
          "name": "city",
          "type": "string"
        },
        {
          "indexed": false,
          "internalType": "string",
          "name": "username",
          "type": "string"
        }
      ],
      "name": "reqregistration",
      "type": "event"
    },
    {
      "inputs": [],
      "name": "admin",
      "outputs": [
        {
          "internalType": "string",
          "name": "",
          "type": "string"
        }
      ],
      "stateMutability": "view",
      "type": "function",
      "constant": true
    },
    {
      "inputs": [],
      "name": "apassword",
      "outputs": [
        {
          "internalType": "uint256",
          "name": "",
          "type": "uint256"
        }
      ],
      "stateMutability": "view",
      "type": "function",
      "constant": true
    },
    {
      "inputs": [],
      "name": "aphonenumber",
      "outputs": [
        {
          "internalType": "uint256",
          "name": "",
          "type": "uint256"
        }
      ],
      "stateMutability": "view",
      "type": "function",
      "constant": true
    },
    {
      "inputs": [
        {
          "internalType": "uint256",
          "name": "",
          "type": "uint256"
        }
      ],
      "name": "request",
      "outputs": [
        {
          "internalType": "string",
          "name": "compeny_name",
          "type": "string"
        },
        {
          "internalType": "uint256",
          "name": "reqno",
          "type": "uint256"
        },
        {
          "internalType": "string",
          "name": "reqid",
          "type": "string"
        },
        {
          "internalType": "string",
          "name": "mail",
          "type": "string"
        },
        {
          "internalType": "uint256",
          "name": "mobile_number",
          "type": "uint256"
        },
        {
          "internalType": "string",
          "name": "haddress",
          "type": "string"
        },
        {
          "internalType": "string",
          "name": "city",
          "type": "string"
        },
        {
          "internalType": "string",
          "name": "username",
          "type": "string"
        },
        {
          "internalType": "enum Admin.st",
          "name": "status",
          "type": "uint8"
        }
      ],
      "stateMutability": "view",
      "type": "function",
      "constant": true
    },
    {
      "inputs": [
        {
          "internalType": "string",
          "name": "",
          "type": "string"
        }
      ],
      "name": "rr",
      "outputs": [
        {
          "internalType": "string",
          "name": "compeny_name",
          "type": "string"
        },
        {
          "internalType": "string",
          "name": "regby",
          "type": "string"
        },
        {
          "internalType": "string",
          "name": "id",
          "type": "string"
        },
        {
          "internalType": "uint256",
          "name": "password",
          "type": "uint256"
        },
        {
          "internalType": "string",
          "name": "mail",
          "type": "string"
        },
        {
          "internalType": "uint256",
          "name": "mobile_number",
          "type": "uint256"
        },
        {
          "internalType": "string",
          "name": "homeaddress",
          "type": "string"
        },
        {
          "internalType": "string",
          "name": "city",
          "type": "string"
        },
        {
          "internalType": "enum Admin.st",
          "name": "status",
          "type": "uint8"
        }
      ],
      "stateMutability": "view",
      "type": "function",
      "constant": true
    },
    {
      "inputs": [
        {
          "internalType": "string",
          "name": "_compeny_name",
          "type": "string"
        },
        {
          "internalType": "string",
          "name": "_regby",
          "type": "string"
        },
        {
          "internalType": "string",
          "name": "_id",
          "type": "string"
        },
        {
          "internalType": "string",
          "name": "_mail",
          "type": "string"
        },
        {
          "internalType": "uint256",
          "name": "_mobile_number",
          "type": "uint256"
        },
        {
          "internalType": "string",
          "name": "_homeaddress",
          "type": "string"
        },
        {
          "internalType": "string",
          "name": "_city",
          "type": "string"
        },
        {
          "internalType": "uint256",
          "name": "_status",
          "type": "uint256"
        }
      ],
      "name": "register",
      "outputs": [],
      "stateMutability": "nonpayable",
      "type": "function"
    },
    {
      "inputs": [
        {
          "internalType": "string",
          "name": "_compeny_name",
          "type": "string"
        },
        {
          "internalType": "string",
          "name": "_reqid",
          "type": "string"
        },
        {
          "internalType": "string",
          "name": "_mail",
          "type": "string"
        },
        {
          "internalType": "uint256",
          "name": "_mobile_number",
          "type": "uint256"
        },
        {
          "internalType": "string",
          "name": "_haddress",
          "type": "string"
        },
        {
          "internalType": "string",
          "name": "_city",
          "type": "string"
        },
        {
          "internalType": "string",
          "name": "_username",
          "type": "string"
        }
      ],
      "name": "reqform",
      "outputs": [],
      "stateMutability": "nonpayable",
      "type": "function"
    },
    {
      "inputs": [
        {
          "internalType": "uint256",
          "name": "reqno",
          "type": "uint256"
        }
      ],
      "name": "rejectreqform",
      "outputs": [],
      "stateMutability": "nonpayable",
      "type": "function"
    },
    {
      "inputs": [
        {
          "internalType": "string",
          "name": "_id",
          "type": "string"
        },
        {
          "internalType": "uint256",
          "name": "_epassword",
          "type": "uint256"
        }
      ],
      "name": "login",
      "outputs": [
        {
          "internalType": "enum Admin.st",
          "name": "",
          "type": "uint8"
        },
        {
          "internalType": "uint256",
          "name": "",
          "type": "uint256"
        }
      ],
      "stateMutability": "view",
      "type": "function",
      "constant": true
    },
    {
      "inputs": [
        {
          "internalType": "string",
          "name": "_eadmin",
          "type": "string"
        },
        {
          "internalType": "uint256",
          "name": "_epassword",
          "type": "uint256"
        },
        {
          "internalType": "string",
          "name": "_newadmin",
          "type": "string"
        },
        {
          "internalType": "uint256",
          "name": "_ephoneno",
          "type": "uint256"
        }
      ],
      "name": "transferownership",
      "outputs": [],
      "stateMutability": "nonpayable",
      "type": "function"
    },
    {
      "inputs": [
        {
          "internalType": "string",
          "name": "_id",
          "type": "string"
        },
        {
          "internalType": "string",
          "name": "_eadmin",
          "type": "string"
        },
        {
          "internalType": "uint256",
          "name": "_epassword",
          "type": "uint256"
        }
      ],
      "name": "deleteuser",
      "outputs": [
        {
          "internalType": "bool",
          "name": "",
          "type": "bool"
        }
      ],
      "stateMutability": "nonpayable",
      "type": "function"
    },
    {
      "inputs": [
        {
          "internalType": "string",
          "name": "_id",
          "type": "string"
        }
      ],
      "name": "deletecandidates",
      "outputs": [
        {
          "internalType": "bool",
          "name": "",
          "type": "bool"
        }
      ],
      "stateMutability": "nonpayable",
      "type": "function"
    },
    {
      "inputs": [
        {
          "internalType": "string",
          "name": "_admin",
          "type": "string"
        },
        {
          "internalType": "uint256",
          "name": "_password",
          "type": "uint256"
        },
        {
          "internalType": "uint256",
          "name": "_newpassword",
          "type": "uint256"
        }
      ],
      "name": "updatepassword",
      "outputs": [],
      "stateMutability": "nonpayable",
      "type": "function"
    },
    {
      "inputs": [
        {
          "internalType": "string",
          "name": "_id",
          "type": "string"
        },
        {
          "internalType": "uint256",
          "name": "_password",
          "type": "uint256"
        },
        {
          "internalType": "uint256",
          "name": "_newpassword",
          "type": "uint256"
        }
      ],
      "name": "updatepasswordcandidate",
      "outputs": [],
      "stateMutability": "nonpayable",
      "type": "function"
    }
  ],
  "bytecode": "0x60806040523480156200001157600080fd5b50604051620023b4380380620023b48339810160408190526200003491620000ff565b8251620000499060049060208601906200005a565b5060059190915560065550620001d3565b828054600181600116156101000203166002900490600052602060002090601f016020900481019282601f106200009d57805160ff1916838001178555620000cd565b82800160010185558215620000cd579182015b82811115620000cd578251825591602001919060010190620000b0565b50620000db929150620000df565b5090565b620000fc91905b80821115620000db5760008155600101620000e6565b90565b60008060006060848603121562000114578283fd5b83516001600160401b03808211156200012b578485fd5b81860187601f8201126200013d578586fd5b80519250818311156200014e578586fd5b6040516020601f8501601f191682018101848111838210171562000170578889fd5b60405284825282850181018a101562000187578788fd5b8793505b84841015620001aa57828401810151828501820152928301926200018b565b84841115620001bb57878186840101525b88015160409098015190999798509695505050505050565b6121d180620001e36000396000f3fe608060405234801561001057600080fd5b50600436106100ca5760003560e01c8063a607e2a11161007c578063a607e2a114610186578063be143e9e14610199578063c40a359c146101ac578063d2c8ab01146101bf578063d55a4468146101d2578063d845a4b3146101e5578063f851a4401461020d576100ca565b806320a06589146100cf57806327a07551146100ed5780633c47c1c51461010d5780634cf7d8ac146101155780638cdd66d514610136578063971d2dc71461014b578063a40780561461015e575b600080fd5b6100d7610222565b6040516100e49190612157565b60405180910390f35b6101006100fb366004611c9a565b610228565b6040516100e49190611ede565b6100d761032b565b610128610123366004611d03565b610331565b6040516100e4929190611ee9565b610149610144366004611ba2565b6104cd565b005b610149610159366004611aa0565b61066a565b61017161016c366004611a66565b610e40565b6040516100e499989796959493929190612048565b610100610194366004611a66565b6111e4565b6101496101a7366004611db6565b6112fb565b6101496101ba366004611e01565b611368565b6101496101cd366004611db6565b611386565b6101496101e0366004611d45565b611453565b6101f86101f3366004611e01565b61150b565b6040516100e4999897969594939291906120e9565b6102156117d2565b6040516100e49190611f05565b60065481565b6000600460405160200161023c9190611e61565b60405160208183030381529060405280519060200120836040516020016102639190611e45565b60405160208183030381529060405280519060200120148015610287575060055482145b61029057600080fd5b6000846040516102a09190611e45565b90815260405190819003602001902060006102bb8282611860565b6102c9600183016000611860565b6102d7600283016000611860565b60038201600090556004820160006102ef9190611860565b60058201600090556006820160006103079190611860565b610315600783016000611860565b50600801805460ff191690555060019392505050565b60055481565b600080604051602001610343906119e6565b604051602081830303815290604052805190602001208460405160200161036a9190611e45565b60405160208183030381529060405280519060200120141561038b57600080fd5b60008460405161039b9190611e45565b90815260200160405180910390206002016040516020016103bc9190611e61565b60405160208183030381529060405280519060200120846040516020016103e39190611e45565b6040516020818303038152906040528051906020012014801561042657506000846040516104119190611e45565b90815260200160405180910390206003015483145b1561045c5760008460405161043b9190611e45565b9081526040519081900360200190206008015460ff169150606490506104c6565b600460405160200161046e9190611e61565b60405160208183030381529060405280519060200120846040516020016104959190611e45565b604051602081830303815290604052805190602001201480156104b9575060055483145b156104c657506004905060c85b9250929050565b60028054600181019091556104e06118a7565b6040518061012001604052808a81526020018381526020018981526020018881526020018781526020018681526020018581526020018481526020016007600e81111561052957fe5b905260008381526003602090815260409091208251805193945084939192610556928492909101906118fd565b5060208281015160018301556040830151805161057992600285019201906118fd565b50606082015180516105959160038401916020909101906118fd565b506080820151600482015560a082015180516105bb9160058401916020909101906118fd565b5060c082015180516105d79160068401916020909101906118fd565b5060e082015180516105f39160078401916020909101906118fd565b5061010082015160088201805460ff1916600183600e81111561061257fe5b02179055509050507f129c5bbff2cd83ac8509644b79b6abb0f17d13c2808653e5277898d5509141a189838a8a8a8a8a8a604051610657989796959493929190611fb8565b60405180910390a1505050505050505050565b8061085a5761067761197b565b6040518061012001604052808a815260200189815260200188815260200142446040516020016106a8929190611ed0565b6040516020818303038152906040528051906020012060001c6103e80161ffff1681526020018781526020018681526020018581526020018481526020016000600e8111156106f357fe5b8152509050806000886040516107099190611e45565b908152602001604051809103902060008201518160000190805190602001906107339291906118fd565b50602082810151805161074c92600185019201906118fd565b50604082015180516107689160028401916020909101906118fd565b50606082015160038201556080820151805161078e9160048401916020909101906118fd565b5060a0820151600582015560c082015180516107b49160068401916020909101906118fd565b5060e082015180516107d09160078401916020909101906118fd565b5061010082015160088201805460ff1916600183600e8111156107ef57fe5b021790555050600254600090815260036020526040808220600801805460ff19166005179055517f426e3b72463035aac038fe543a27e9910a6a16d7ef8c22c962677e9f60b836ac9250610850918c918c918c918c918c918c918c91611f1f565b60405180910390a1505b8060011415610a525761086b61197b565b6040518061012001604052808a8152602001898152602001888152602001424460405160200161089c929190611ed0565b6040516020818303038152906040528051906020012060001c6103e80161ffff1681526020018781526020018681526020018581526020018481526020016001600e8111156108e757fe5b8152509050806000886040516108fd9190611e45565b908152602001604051809103902060008201518160000190805190602001906109279291906118fd565b50602082810151805161094092600185019201906118fd565b506040820151805161095c9160028401916020909101906118fd565b5060608201516003820155608082015180516109829160048401916020909101906118fd565b5060a0820151600582015560c082015180516109a89160068401916020909101906118fd565b5060e082015180516109c49160078401916020909101906118fd565b5061010082015160088201805460ff1916600183600e8111156109e357fe5b02179055505060025460009081526003602052604090819020600801805460ff19166005179055517f299b4fb66386a71846d397cfd6dc76d1c4ecd646888678b09260aa31672196e29150610a48908b908b908b908b908b908b908b90600190611f1f565b60405180910390a1505b8060021415610c4857610a6361197b565b6040518061012001604052808a81526020018981526020018881526020014244604051602001610a94929190611ed0565b6040516020818303038152906040528051906020012060001c6103e80161ffff1681526020018781526020018681526020018581526020018481526020016002600e811115610adf57fe5b815250905080600088604051610af59190611e45565b90815260200160405180910390206000820151816000019080519060200190610b1f9291906118fd565b506020828101518051610b3892600185019201906118fd565b5060408201518051610b549160028401916020909101906118fd565b506060820151600382015560808201518051610b7a9160048401916020909101906118fd565b5060a0820151600582015560c08201518051610ba09160068401916020909101906118fd565b5060e08201518051610bbc9160078401916020909101906118fd565b5061010082015160088201805460ff1916600183600e811115610bdb57fe5b0217905550506002805460009081526003602052604090819020600801805460ff19166005179055517f5d622ca081706386139dd8a82f7c6f243831e266b08f8266b9f51f2127a33ede9250610c3e918c918c918c918c918c918c918c91611f1f565b60405180910390a1505b8060031415610e3657610c5961197b565b6040518061012001604052808a81526020018981526020018881526020014244604051602001610c8a929190611ed0565b6040516020818303038152906040528051906020012060001c6103e80161ffff1681526020018781526020018681526020018581526020018481526020016003600e811115610cd557fe5b815250905080600088604051610ceb9190611e45565b90815260200160405180910390206000820151816000019080519060200190610d159291906118fd565b506020828101518051610d2e92600185019201906118fd565b5060408201518051610d4a9160028401916020909101906118fd565b506060820151600382015560808201518051610d709160048401916020909101906118fd565b5060a0820151600582015560c08201518051610d969160068401916020909101906118fd565b5060e08201518051610db29160078401916020909101906118fd565b5061010082015160088201805460ff1916600183600e811115610dd157fe5b021790555050600254600090815260036020819052604091829020600801805460ff1916600517905590517f804567b53333d40af1ae0be0e10c1defa543ffe8ffceb570abc2bc54f7e7036e9250610657918c918c918c918c918c918c918c91611f1f565b5050505050505050565b805160208183018101805160008252928201938201939093209190925280546040805160026001841615610100026000190190931692909204601f8101859004850283018501909152808252919290918391830182828015610ee35780601f10610eb857610100808354040283529160200191610ee3565b820191906000526020600020905b815481529060010190602001808311610ec657829003601f168201915b505050505090806001018054600181600116156101000203166002900480601f016020809104026020016040519081016040528092919081815260200182805460018160011615610100020316600290048015610f815780601f10610f5657610100808354040283529160200191610f81565b820191906000526020600020905b815481529060010190602001808311610f6457829003601f168201915b50505060028085018054604080516020601f60001961010060018716150201909416959095049283018590048502810185019091528181529596959450909250908301828280156110135780601f10610fe857610100808354040283529160200191611013565b820191906000526020600020905b815481529060010190602001808311610ff657829003601f168201915b50505050600383015460048401805460408051602060026001851615610100026000190190941693909304601f810184900484028201840190925281815295969395939450908301828280156110aa5780601f1061107f576101008083540402835291602001916110aa565b820191906000526020600020905b81548152906001019060200180831161108d57829003601f168201915b50505050600583015460068401805460408051602060026001851615610100026000190190941693909304601f810184900484028201840190925281815295969395939450908301828280156111415780601f1061111657610100808354040283529160200191611141565b820191906000526020600020905b81548152906001019060200180831161112457829003601f168201915b5050505060078301805460408051602060026001851615610100026000190190941693909304601f81018490048402820184019092528181529495949350908301828280156111d15780601f106111a6576101008083540402835291602001916111d1565b820191906000526020600020905b8154815290600101906020018083116111b457829003601f168201915b5050506008909301549192505060ff1689565b600080826040516111f59190611e45565b90815260200160405180910390206002016040516020016112169190611e61565b604051602081830303815290604052805190602001208260405160200161123d9190611e45565b6040516020818303038152906040528051906020012014156112f2576000826040516112699190611e45565b90815260405190819003602001902060006112848282611860565b611292600183016000611860565b6112a0600283016000611860565b60038201600090556004820160006112b89190611860565b60058201600090556006820160006112d09190611860565b6112de600783016000611860565b50600801805460ff191690555060016112f6565b5060005b919050565b600460405160200161130d9190611e61565b60405160208183030381529060405280519060200120836040516020016113349190611e45565b60405160208183030381529060405280519060200120148015611358575060055482145b61136157600080fd5b6005555050565b6000908152600360205260409020600801805460ff19166006179055565b6000836040516113969190611e45565b90815260200160405180910390206002016040516020016113b79190611e61565b60405160208183030381529060405280519060200120836040516020016113de9190611e45565b6040516020818303038152906040528051906020012014801561142157508160008460405161140d9190611e45565b908152602001604051809103902060030154145b61142a57600080fd5b8060008460405161143b9190611e45565b90815260405190819003602001902060030155505050565b60046040516020016114659190611e61565b604051602081830303815290604052805190602001208460405160200161148c9190611e45565b604051602081830303815290604052805190602001201480156114b0575060055483145b6114b957600080fd5b81516114cc9060049060208501906118fd565b5042446040516020016114e0929190611ed0565b60408051808303601f1901815291905280516020909101206103e80161ffff16600555600655505050565b60036020908152600091825260409182902080548351601f600260001961010060018616150201909316929092049182018490048402810184019094528084529092918391908301828280156115a25780601f10611577576101008083540402835291602001916115a2565b820191906000526020600020905b81548152906001019060200180831161158557829003601f168201915b505050505090806001015490806002018054600181600116156101000203166002900480601f0160208091040260200160405190810160405280929190818152602001828054600181600116156101000203166002900480156116465780601f1061161b57610100808354040283529160200191611646565b820191906000526020600020905b81548152906001019060200180831161162957829003601f168201915b5050505060038301805460408051602060026001851615610100026000190190941693909304601f81018490048402820184019092528181529495949350908301828280156116d65780601f106116ab576101008083540402835291602001916116d6565b820191906000526020600020905b8154815290600101906020018083116116b957829003601f168201915b50505050600483015460058401805460408051602060026001851615610100026000190190941693909304601f8101849004840282018401909252818152959693959394509083018282801561176d5780601f106117425761010080835404028352916020019161176d565b820191906000526020600020905b81548152906001019060200180831161175057829003601f168201915b5050505060068301805460408051602060026001851615610100026000190190941693909304601f81018490048402820184019092528181529495949350908301828280156111415780601f1061111657610100808354040283529160200191611141565b6004805460408051602060026001851615610100026000190190941693909304601f810184900484028201840190925281815292918301828280156118585780601f1061182d57610100808354040283529160200191611858565b820191906000526020600020905b81548152906001019060200180831161183b57829003601f168201915b505050505081565b50805460018160011615610100020316600290046000825580601f1061188657506118a4565b601f0160209004906000526020600020908101906118a491906119cc565b50565b60405180610120016040528060608152602001600081526020016060815260200160608152602001600081526020016060815260200160608152602001606081526020016000600e8111156118f857fe5b905290565b828054600181600116156101000203166002900490600052602060002090601f016020900481019282601f1061193e57805160ff191683800117855561196b565b8280016001018555821561196b579182015b8281111561196b578251825591602001919060010190611950565b506119779291506119cc565b5090565b60405180610120016040528060608152602001606081526020016060815260200160008152602001606081526020016000815260200160608152602001606081526020016000600e8111156118f857fe5b6119e691905b8082111561197757600081556001016119d2565b90565b600082601f8301126119f9578081fd5b81356001600160401b0380821115611a0f578283fd5b604051601f8301601f191681016020018281118282101715611a2f578485fd5b604052828152925082848301602001861015611a4a57600080fd5b8260208601602083013760006020848301015250505092915050565b600060208284031215611a77578081fd5b81356001600160401b03811115611a8c578182fd5b611a98848285016119e9565b949350505050565b600080600080600080600080610100898b031215611abc578384fd5b88356001600160401b0380821115611ad2578586fd5b611ade8c838d016119e9565b995060208b0135915080821115611af3578586fd5b611aff8c838d016119e9565b985060408b0135915080821115611b14578586fd5b611b208c838d016119e9565b975060608b0135915080821115611b35578586fd5b611b418c838d016119e9565b965060808b0135955060a08b0135915080821115611b5d578485fd5b611b698c838d016119e9565b945060c08b0135915080821115611b7e578384fd5b50611b8b8b828c016119e9565b92505060e089013590509295985092959890939650565b600080600080600080600060e0888a031215611bbc578283fd5b87356001600160401b0380821115611bd2578485fd5b611bde8b838c016119e9565b985060208a0135915080821115611bf3578485fd5b611bff8b838c016119e9565b975060408a0135915080821115611c14578485fd5b611c208b838c016119e9565b965060608a0135955060808a0135915080821115611c3c578485fd5b611c488b838c016119e9565b945060a08a0135915080821115611c5d578384fd5b611c698b838c016119e9565b935060c08a0135915080821115611c7e578283fd5b50611c8b8a828b016119e9565b91505092959891949750929550565b600080600060608486031215611cae578283fd5b83356001600160401b0380821115611cc4578485fd5b611cd0878388016119e9565b94506020860135915080821115611ce5578384fd5b50611cf2868287016119e9565b925050604084013590509250925092565b60008060408385031215611d15578182fd5b82356001600160401b03811115611d2a578283fd5b611d36858286016119e9565b95602094909401359450505050565b60008060008060808587031215611d5a578384fd5b84356001600160401b0380821115611d70578586fd5b611d7c888389016119e9565b9550602087013594506040870135915080821115611d98578384fd5b50611da5878288016119e9565b949793965093946060013593505050565b600080600060608486031215611dca578283fd5b83356001600160401b03811115611ddf578384fd5b611deb868287016119e9565b9660208601359650604090950135949350505050565b600060208284031215611e12578081fd5b5035919050565b60008151808452611e3181602086016020860161216b565b601f01601f19169290920160200192915050565b60008251611e5781846020870161216b565b9190910192915050565b60008083546001811660008114611e7f5760018114611e9657611ec6565b60ff198216855260028204607f1685019250611ec6565b6002820486855260208520855b82811015611ebf57815488820152600190910190602001611ea3565b5050850192505b5090949350505050565b918252602082015260400190565b901515815260200190565b60408101611ef684612160565b82528260208301529392505050565b600060208252611f186020830184611e19565b9392505050565b6000610100808352611f338184018c611e19565b8381036020850152611f45818c611e19565b9150508281036040840152611f5a818a611e19565b8381036060850152611f6c818a611e19565b91505086608084015282810360a0840152611f878187611e19565b83810360c0850152611f998187611e19565b92505050611fa683612160565b60e08301529998505050505050505050565b6000610100808352611fcc8184018c611e19565b8a60208501528381036040850152611fe4818b611e19565b9150508281036060840152611ff98189611e19565b87608085015283810360a08501526120118188611e19565b91505082810360c08401526120268186611e19565b83810360e08501526120388186611e19565b9c9b505050505050505050505050565b600061012080835261205c8184018d611e19565b838103602085015261206e818d611e19565b9150508281036040840152612083818b611e19565b896060850152838103608085015261209b818a611e19565b9150508660a084015282810360c08401526120b68187611e19565b83810360e08501526120c88187611e19565b925050506120d583612160565b6101008301529a9950505050505050505050565b60006101208083526120fd8184018d611e19565b8b60208501528381036040850152612115818c611e19565b915050828103606084015261212a818a611e19565b88608085015283810360a08501526121428189611e19565b91505082810360c08401526120b68187611e19565b90815260200190565b80600f81106112f657fe5b60005b8381101561218657818101518382015260200161216e565b83811115612195576000848401525b5050505056fea2646970667358221220a6a7fe45c0a543409f73033b22bd487b301533170768f55471fb8466650ed0b864736f6c63430006010033",
  "source": "pragma solidity ^0.6.1;\r\n pragma experimental ABIEncoderV2;\r\n\r\ncontract Admin{\r\n    struct Registration{\r\n        string compeny_name;\r\n        string regby;\r\n        string id;\r\n        uint password;\r\n        string mail;\r\n        uint mobile_number;\r\n        string homeaddress;\r\n        string city;\r\n        st status;\r\n    }\r\n    mapping(string=>Registration)public rr;\r\n    enum st{supplier,manufacture,distributer,retailer,admin,approved,rejected,requested,at_supplier,at_manufacture,at_ditributer,at_retailer,received,a,canceled}\r\n    st status;\r\n    event Supplier(string compeny_name,string regby, string id,  string mail, uint mobile_number, string homeaddress, string city,st);\r\n    event Manufacture(string compeny_name,string regby, string id,  string mail, uint mobile_number, string homeaddress, string city,st);\r\n     event Distributer(string compeny_name, string regby,string id,  string mail, uint mobile_number, string homeaddress, string city,st);\r\n     event Retailer(string compeny_name,string regby, string id, string mail, uint mobile_number, string homeaddress, string city,st);\r\n\r\n    function register(string memory _compeny_name, string memory _regby,string memory _id,  string memory _mail, uint _mobile_number, string memory _homeaddress, string memory _city,uint _status)public{\r\n    if(_status==0){\r\n\r\n    Registration memory temp=Registration(_compeny_name,_regby,_id,uint16(uint256(keccak256(abi.encodePacked(block.timestamp, block.difficulty)))+1000),_mail,_mobile_number,_homeaddress,_city,st.supplier);\r\n    rr[_id]=temp;\r\n            request[reqno].status=st.approved;\r\n\r\n    emit Supplier(_compeny_name,_regby,_id,_mail,_mobile_number,_homeaddress,_city,st.supplier);    \r\n    }\r\n     if(_status==1){\r\n    Registration memory temp=Registration(_compeny_name,_regby,_id,uint16(uint256(keccak256(abi.encodePacked(block.timestamp, block.difficulty)))+1000),_mail,_mobile_number,_homeaddress,_city,st.manufacture);\r\n    rr[_id]=temp;\r\n            request[reqno].status=st.approved;\r\n\r\n    emit Manufacture(_compeny_name,_regby,_id,_mail,_mobile_number,_homeaddress,_city,st.manufacture);\r\n     }\r\n       if(_status==2){\r\n    Registration memory temp=Registration(_compeny_name,_regby,_id,uint16(uint256(keccak256(abi.encodePacked(block.timestamp, block.difficulty)))+1000),_mail,_mobile_number,_homeaddress,_city,st.distributer);\r\n    rr[_id]=temp;\r\n            request[reqno].status=st.approved;\r\n\r\n    emit Distributer(_compeny_name,_regby,_id,_mail,_mobile_number,_homeaddress,_city,st.distributer);\r\n     }\r\n      if(_status==3){\r\n    Registration memory temp=Registration(_compeny_name,_regby,_id,uint16(uint256(keccak256(abi.encodePacked(block.timestamp, block.difficulty)))+1000),_mail,_mobile_number,_homeaddress,_city,st.retailer);\r\n    rr[_id]=temp;\r\n            request[reqno].status=st.approved;\r\n\r\n    emit Retailer(_compeny_name,_regby,_id,_mail,_mobile_number,_homeaddress,_city,st.retailer);\r\n     }\r\n\r\n}\r\n\r\n  struct requestform{\r\n        string compeny_name;\r\n        uint reqno;\r\n        string reqid;\r\n        string mail;\r\n        uint mobile_number;\r\n        string haddress;\r\n        string city;\r\n        string username;\r\n        st status;\r\n    }\r\n    uint reqno;\r\n    event reqregistration(string compeny_name,uint reqno,string reqid,string mail,uint mobile_number,string haddress,string city,string username);\r\n    mapping(uint=>requestform) public request;\r\n    function reqform(string memory _compeny_name,string memory _reqid,string memory _mail, uint _mobile_number, string memory _haddress, string memory _city,string memory _username)public{\r\n      uint reqno=reqno++;\r\n\r\n      requestform memory temp=requestform(_compeny_name,reqno,_reqid,_mail,_mobile_number,_haddress,_city,_username,st.requested);\r\n    request[reqno]=temp;  \r\n        emit reqregistration(_compeny_name,reqno,_reqid,_mail,_mobile_number,_haddress,_city,_username);\r\n    }\r\n    function rejectreqform(uint reqno)public{\r\n     request[reqno].status=st.rejected;\r\n\r\n    }\r\n    \r\n//____________________________ADMIN_________________________________________________________\r\n\r\nstring  public admin;\r\n    uint public apassword;\r\n    uint public aphonenumber;\r\n    \r\n   \r\n      constructor(string memory _Admin,uint _password,uint _Phoneno ) public {\r\n         admin = _Admin;\r\n         apassword=_password;\r\n          aphonenumber=_Phoneno;\r\n    }\r\n \r\n function login(string memory _id,uint _epassword)public view returns(st,uint){\r\n     require(keccak256(abi.encodePacked(_id))!=(keccak256(abi.encodePacked(\"\"))));\r\n        if((keccak256(abi.encodePacked(_id)) == keccak256(abi.encodePacked(rr[_id].id)))&&(_epassword==rr[_id].password)){\r\n            return(rr[_id].status,100);\r\n    }\r\n      if((keccak256(abi.encodePacked(_id))==keccak256(abi.encodePacked(admin))&&_epassword==apassword)){\r\n        return(st.admin,200);\r\n    }\r\n    \r\n   \r\n  }\r\n \r\n function transferownership(string memory _eadmin,uint _epassword,string memory _newadmin,uint _ephoneno)public{\r\n   require  ((keccak256(abi.encodePacked((_eadmin))) == keccak256(abi.encodePacked((admin))))&&(_epassword==apassword));\r\n     admin=_newadmin;\r\n     apassword=uint16(uint256(keccak256(abi.encodePacked(block.timestamp, block.difficulty)))+1000);\r\n    aphonenumber=_ephoneno;\r\n }\r\n\r\nfunction deleteuser(string memory _id,string memory _eadmin,uint _epassword)public returns(bool){\r\n     require  ((keccak256(abi.encodePacked((_eadmin))) == keccak256(abi.encodePacked((admin))))&&(_epassword==apassword));\r\n            delete rr[_id];\r\n            return(true);\r\n  }\r\n  function deletecandidates(string memory _id)public returns(bool){\r\n        if(((keccak256(abi.encodePacked(_id)) == keccak256(abi.encodePacked(rr[_id].id))))){\r\n            delete rr[_id];\r\n            return(true);\r\n        }\r\n       else return(false);\r\n   }\r\n  \r\n function updatepassword(string memory _admin, uint _password,uint _newpassword) public {\r\n        require((keccak256(abi.encodePacked((_admin))) == keccak256(abi.encodePacked((admin))))&&(_password==apassword));\r\n         apassword=_newpassword;\r\n        \r\n   }\r\n   function updatepasswordcandidate(string memory _id, uint _password,uint _newpassword) public {\r\n        require((keccak256(abi.encodePacked((_id))) == keccak256(abi.encodePacked((rr[_id].id))))&&(rr[_id].password==_password));\r\n         rr[_id].password=_newpassword;\r\n        \r\n   }\r\n}",
  "sourcePath": "C:\\Users\\Administrator\\Desktop\\Birth-Death\\Truffle\\contracts\\admin.sol",
  "compiler": {
    "name": "solc",
    "version": "0.6.1+commit.e6f7d5a4.Emscripten.clang"
  },
  "schemaVersion": "3.0.23",
  "updatedAt": "2020-02-14T11:26:19.453Z",
  "networkType": "ethereum",
  "devdoc": {
    "methods": {}
  },
  "userdoc": {
    "methods": {}
  }
}