{
  "contractName": "Damage",
  "abi": [
    {
      "anonymous": false,
      "inputs": [
        {
          "indexed": false,
          "internalType": "uint256",
          "name": "damageid",
          "type": "uint256"
        },
        {
          "indexed": false,
          "internalType": "string",
          "name": "fromid",
          "type": "string"
        },
        {
          "indexed": false,
          "internalType": "string",
          "name": "toid",
          "type": "string"
        },
        {
          "indexed": false,
          "internalType": "string",
          "name": "productid",
          "type": "string"
        },
        {
          "indexed": false,
          "internalType": "string",
          "name": "typeofdamage",
          "type": "string"
        },
        {
          "indexed": false,
          "internalType": "uint256",
          "name": "quantity",
          "type": "uint256"
        },
        {
          "indexed": false,
          "internalType": "string",
          "name": "image",
          "type": "string"
        },
        {
          "indexed": false,
          "internalType": "enum Damage.st",
          "name": "",
          "type": "uint8"
        }
      ],
      "name": "manufacture_damage",
      "type": "event"
    },
    {
      "anonymous": false,
      "inputs": [
        {
          "indexed": false,
          "internalType": "uint256",
          "name": "damageid",
          "type": "uint256"
        },
        {
          "indexed": false,
          "internalType": "string",
          "name": "fromid",
          "type": "string"
        },
        {
          "indexed": false,
          "internalType": "string",
          "name": "toid",
          "type": "string"
        },
        {
          "indexed": false,
          "internalType": "string",
          "name": "materialid",
          "type": "string"
        },
        {
          "indexed": false,
          "internalType": "string",
          "name": "typeofdamage",
          "type": "string"
        },
        {
          "indexed": false,
          "internalType": "uint256",
          "name": "quantity",
          "type": "uint256"
        },
        {
          "indexed": false,
          "internalType": "string",
          "name": "image",
          "type": "string"
        },
        {
          "indexed": false,
          "internalType": "enum Damage.st",
          "name": "",
          "type": "uint8"
        }
      ],
      "name": "supplier_form_damage",
      "type": "event"
    },
    {
      "inputs": [
        {
          "internalType": "uint256",
          "name": "",
          "type": "uint256"
        }
      ],
      "name": "formdamage",
      "outputs": [
        {
          "internalType": "uint256",
          "name": "damageid",
          "type": "uint256"
        },
        {
          "internalType": "string",
          "name": "fromid",
          "type": "string"
        },
        {
          "internalType": "string",
          "name": "toid",
          "type": "string"
        },
        {
          "internalType": "string",
          "name": "materialid",
          "type": "string"
        },
        {
          "internalType": "string",
          "name": "typeofdamage",
          "type": "string"
        },
        {
          "internalType": "uint256",
          "name": "quantity",
          "type": "uint256"
        },
        {
          "internalType": "string",
          "name": "image",
          "type": "string"
        },
        {
          "internalType": "enum Damage.st",
          "name": "status",
          "type": "uint8"
        }
      ],
      "stateMutability": "view",
      "type": "function"
    },
    {
      "inputs": [
        {
          "internalType": "uint256",
          "name": "",
          "type": "uint256"
        }
      ],
      "name": "manudamage",
      "outputs": [
        {
          "internalType": "uint256",
          "name": "damageid",
          "type": "uint256"
        },
        {
          "internalType": "string",
          "name": "fromid",
          "type": "string"
        },
        {
          "internalType": "string",
          "name": "toid",
          "type": "string"
        },
        {
          "internalType": "string",
          "name": "productid",
          "type": "string"
        },
        {
          "internalType": "string",
          "name": "typeofdamage",
          "type": "string"
        },
        {
          "internalType": "uint256",
          "name": "quantity",
          "type": "uint256"
        },
        {
          "internalType": "string",
          "name": "image",
          "type": "string"
        },
        {
          "internalType": "enum Damage.st",
          "name": "status",
          "type": "uint8"
        }
      ],
      "stateMutability": "view",
      "type": "function"
    },
    {
      "inputs": [
        {
          "internalType": "string",
          "name": "_fromid",
          "type": "string"
        },
        {
          "internalType": "string",
          "name": "_toid",
          "type": "string"
        },
        {
          "internalType": "string",
          "name": "_materialid",
          "type": "string"
        },
        {
          "internalType": "string",
          "name": "_typeofdamage",
          "type": "string"
        },
        {
          "internalType": "uint256",
          "name": "_quantity",
          "type": "uint256"
        },
        {
          "internalType": "string",
          "name": "_image",
          "type": "string"
        }
      ],
      "name": "supplier_damage",
      "outputs": [],
      "stateMutability": "nonpayable",
      "type": "function"
    },
    {
      "inputs": [
        {
          "internalType": "uint256",
          "name": "damageid",
          "type": "uint256"
        }
      ],
      "name": "receiveddamagesupplier",
      "outputs": [],
      "stateMutability": "nonpayable",
      "type": "function"
    },
    {
      "inputs": [
        {
          "internalType": "string",
          "name": "_fromid",
          "type": "string"
        },
        {
          "internalType": "string",
          "name": "_toid",
          "type": "string"
        },
        {
          "internalType": "string",
          "name": "_productid",
          "type": "string"
        },
        {
          "internalType": "string",
          "name": "_typeofdamage",
          "type": "string"
        },
        {
          "internalType": "uint256",
          "name": "_quantity",
          "type": "uint256"
        },
        {
          "internalType": "string",
          "name": "_image",
          "type": "string"
        },
        {
          "internalType": "uint256",
          "name": "_status",
          "type": "uint256"
        }
      ],
      "name": "manufacture_at_damage",
      "outputs": [],
      "stateMutability": "nonpayable",
      "type": "function"
    },
    {
      "inputs": [
        {
          "internalType": "uint256",
          "name": "damageid",
          "type": "uint256"
        }
      ],
      "name": "receiveddamagemanufacture",
      "outputs": [],
      "stateMutability": "nonpayable",
      "type": "function"
    },
    {
      "inputs": [
        {
          "internalType": "uint256",
          "name": "damageid",
          "type": "uint256"
        }
      ],
      "name": "receiveddamagedistributer",
      "outputs": [],
      "stateMutability": "nonpayable",
      "type": "function"
    }
  ],
  "bytecode": "0x608060405234801561001057600080fd5b50610da3806100206000396000f3fe608060405234801561001057600080fd5b506004361061006d5760003560e01c80633a2ce8541461007257806344c2db58146100875780634b22614f1461009a5780639b4490b3146100ca578063a5de045e146100dd578063c8b1e3f8146100f0578063e836778914610103575b600080fd5b610085610080366004610c7c565b610116565b005b610085610095366004610b9d565b61013d565b6100ad6100a8366004610c7c565b610449565b6040516100c1989796959493929190610cdf565b60405180910390f35b6100856100d8366004610ac9565b610742565b6100856100eb366004610c7c565b6108ab565b6100856100fe366004610c7c565b6108ce565b6100ad610111366004610c7c565b6108f1565b600081815260036020526040902060070180546009919060ff19166001835b021790555050565b6001805480820182559082141561027557610156610961565b6040518061010001604052808381526020018a81526020018981526020018881526020018781526020018681526020018581526020016009600e81111561019957fe5b9052600083815260036020908152604090912082518155818301518051939450849391926101cf926001850192909101906109b0565b50604082015180516101eb9160028401916020909101906109b0565b50606082015180516102079160038401916020909101906109b0565b50608082015180516102239160048401916020909101906109b0565b5060a0820151600582015560c082015180516102499160068401916020909101906109b0565b5060e082015160078201805460ff1916600183600e81111561026757fe5b0217905550905050506103f4565b81600214156102c957610286610961565b6040518061010001604052808381526020018a8152602001898152602001888152602001878152602001868152602001858152602001600a600e81111561019957fe5b81600314156103f4576102da610961565b6040518061010001604052808381526020018a8152602001898152602001888152602001878152602001868152602001858152602001600b600e81111561031d57fe5b905260008381526003602090815260409091208251815581830151805193945084939192610353926001850192909101906109b0565b506040820151805161036f9160028401916020909101906109b0565b506060820151805161038b9160038401916020909101906109b0565b50608082015180516103a79160048401916020909101906109b0565b5060a0820151600582015560c082015180516103cd9160068401916020909101906109b0565b5060e082015160078201805460ff1916600183600e8111156103eb57fe5b02179055505050505b6000546040517f9fa61fd04ce20f97f7d07594da6aa88e2ec8af247098fb5032c40cdae5d730b6916104379184918c918c918c918c918c918c9160ff1690610cdf565b60405180910390a15050505050505050565b6003602090815260009182526040918290208054600180830180548651600293821615610100026000190190911692909204601f8101869004860283018601909652858252919492939092908301828280156104e65780601f106104bb576101008083540402835291602001916104e6565b820191906000526020600020905b8154815290600101906020018083116104c957829003601f168201915b50505060028085018054604080516020601f60001961010060018716150201909416959095049283018590048502810185019091528181529596959450909250908301828280156105785780601f1061054d57610100808354040283529160200191610578565b820191906000526020600020905b81548152906001019060200180831161055b57829003601f168201915b5050505060038301805460408051602060026001851615610100026000190190941693909304601f81018490048402820184019092528181529495949350908301828280156106085780601f106105dd57610100808354040283529160200191610608565b820191906000526020600020905b8154815290600101906020018083116105eb57829003601f168201915b5050505060048301805460408051602060026001851615610100026000190190941693909304601f81018490048402820184019092528181529495949350908301828280156106985780601f1061066d57610100808354040283529160200191610698565b820191906000526020600020905b81548152906001019060200180831161067b57829003601f168201915b50505050600583015460068401805460408051602060026001851615610100026000190190941693909304601f8101849004840282018401909252818152959693959394509083018282801561072f5780601f106107045761010080835404028352916020019161072f565b820191906000526020600020905b81548152906001019060200180831161071257829003601f168201915b5050506007909301549192505060ff1688565b60018054808201909155610754610961565b6040518061010001604052808381526020018981526020018881526020018781526020018681526020018581526020018481526020016009600e81111561079757fe5b9052600083815260026020908152604090912082518155818301518051939450849391926107cd926001850192909101906109b0565b50604082015180516107e99160028401916020909101906109b0565b50606082015180516108059160038401916020909101906109b0565b50608082015180516108219160048401916020909101906109b0565b5060a0820151600582015560c082015180516108479160068401916020909101906109b0565b5060e082015160078201805460ff1916600183600e81111561086557fe5b02179055509050507f2ad1a21b4966b0585e392e944a4b4e874332a546316b3b130dba1290d53917a2828989898989896009604051610437989796959493929190610cdf565b60008181526003602052604090206007018054600a919060ff1916600183610135565b600081815260026020526040902060070180546008919060ff1916600183610135565b60026020818152600092835260409283902080546001808301805487519281161561010002600019011695909504601f81018590048502820185019096528581529094919390929091908301828280156104e65780601f106104bb576101008083540402835291602001916104e6565b604051806101000160405280600081526020016060815260200160608152602001606081526020016060815260200160008152602001606081526020016000600e8111156109ab57fe5b905290565b828054600181600116156101000203166002900490600052602060002090601f016020900481019282601f106109f157805160ff1916838001178555610a1e565b82800160010185558215610a1e579182015b82811115610a1e578251825591602001919060010190610a03565b50610a2a929150610a2e565b5090565b610a4891905b80821115610a2a5760008155600101610a34565b90565b600082601f830112610a5b578081fd5b813567ffffffffffffffff80821115610a72578283fd5b604051601f8301601f191681016020018281118282101715610a92578485fd5b604052828152925082848301602001861015610aad57600080fd5b8260208601602083013760006020848301015250505092915050565b60008060008060008060c08789031215610ae1578182fd5b863567ffffffffffffffff80821115610af8578384fd5b610b048a838b01610a4b565b97506020890135915080821115610b19578384fd5b610b258a838b01610a4b565b96506040890135915080821115610b3a578384fd5b610b468a838b01610a4b565b95506060890135915080821115610b5b578384fd5b610b678a838b01610a4b565b94506080890135935060a0890135915080821115610b83578283fd5b50610b9089828a01610a4b565b9150509295509295509295565b600080600080600080600060e0888a031215610bb7578081fd5b873567ffffffffffffffff80821115610bce578283fd5b610bda8b838c01610a4b565b985060208a0135915080821115610bef578283fd5b610bfb8b838c01610a4b565b975060408a0135915080821115610c10578283fd5b610c1c8b838c01610a4b565b965060608a0135915080821115610c31578283fd5b610c3d8b838c01610a4b565b955060808a0135945060a08a0135915080821115610c59578283fd5b50610c668a828b01610a4b565b92505060c0880135905092959891949750929550565b600060208284031215610c8d578081fd5b5035919050565b60008151808452815b81811015610cb957602081850181015186830182015201610c9d565b81811115610cca5782602083870101525b50601f01601f19169290920160200192915050565b60006101008a8352806020840152610cf98184018b610c94565b8381036040850152610d0b818b610c94565b9150508281036060840152610d208189610c94565b8381036080850152610d328189610c94565b9150508560a084015282810360c0840152610d4d8186610c94565b915050600f8310610d5a57fe5b8260e0830152999850505050505050505056fea26469706673582212205ea87143df932e713ad1b00a5e8806d47b24bff22045b961e6704308576a2ccc64736f6c63430006010033",
  "source": "pragma solidity ^0.6.1;\r\n pragma experimental ABIEncoderV2;\r\n import \"./chain.sol\";\r\n\r\n contract Damage{\r\n      struct damage{\r\n     uint damageid;\r\n     string fromid;\r\n     string toid;\r\n     string materialid;\r\n     string typeofdamage;\r\n     uint quantity;\r\n     string image;\r\n     st status;\r\n }\r\n enum st{supplier,manufacture,distributer,retailer,admin,approved,rejected,requested,at_supplier,at_manufacture,at_ditributer,at_retailer,received,a,canceled}\r\n    st status;\r\n      uint damageid;\r\n  mapping (uint=>damage)public formdamage;\r\n  event supplier_form_damage(uint damageid,string fromid,string toid,string materialid, string typeofdamage,uint quantity, string image,st);\r\n  function supplier_damage(string memory _fromid,string memory _toid,string memory _materialid,string memory _typeofdamage,uint _quantity,string memory _image)public {\r\n       uint damageid=damageid++;\r\n\r\n      damage memory temp = damage(damageid,_fromid,_toid,_materialid,_typeofdamage,_quantity,_image,st.at_manufacture);\r\n        formdamage[damageid] = temp; \r\n        emit supplier_form_damage(damageid,_fromid,_toid,_materialid,_typeofdamage,_quantity,_image,st.at_manufacture);\r\n  }\r\n\r\nfunction receiveddamagesupplier(uint damageid)public{\r\n    formdamage[damageid].status=st.at_supplier;\r\n}\r\n struct manufacturedamage{\r\n     uint damageid;\r\n     string fromid;\r\n     string toid;\r\n     string productid;\r\n     string typeofdamage;\r\n     uint quantity;\r\n     string image;\r\n     st status;\r\n }\r\n  mapping (uint=>manufacturedamage)public manudamage;\r\n  event manufacture_damage(uint damageid,string fromid,string toid,string productid, string typeofdamage,uint quantity, string image,st);\r\n  function manufacture_at_damage(string memory _fromid,string memory _toid,string memory _productid,string memory _typeofdamage,uint _quantity,string memory _image,uint _status)public {\r\n       uint damageid=damageid++;\r\nif(_status==1){\r\n      manufacturedamage memory temp = manufacturedamage(damageid,_fromid,_toid,_productid,_typeofdamage,_quantity,_image,st.at_manufacture);\r\n        manudamage[damageid] = temp; \r\n  }\r\n  else if(_status==2){\r\n       manufacturedamage memory temp = manufacturedamage(damageid,_fromid,_toid,_productid,_typeofdamage,_quantity,_image,st.at_ditributer);\r\n        manudamage[damageid] = temp; \r\n  }\r\n  else if(_status==3){\r\n       manufacturedamage memory temp = manufacturedamage(damageid,_fromid,_toid,_productid,_typeofdamage,_quantity,_image,st.at_retailer);\r\n        manudamage[damageid] = temp; \r\n  }\r\n          emit manufacture_damage(damageid,_fromid,_toid,_productid,_typeofdamage,_quantity,_image,status);\r\n\r\n  }\r\n\r\nfunction receiveddamagemanufacture(uint damageid)public{\r\n    manudamage[damageid].status=st.at_manufacture;\r\n}\r\n\r\nfunction receiveddamagedistributer(uint damageid)public{\r\n    manudamage[damageid].status=st.at_ditributer;\r\n}\r\n }",
  "sourcePath": "C:\\Users\\Administrator\\Desktop\\Birth-Death\\Truffle\\contracts\\damage.sol",
  "compiler": {
    "name": "solc",
    "version": "0.6.1+commit.e6f7d5a4.Emscripten.clang"
  },
  "schemaVersion": "3.0.23",
  "updatedAt": "2020-02-14T11:26:16.410Z",
  "devdoc": {
    "methods": {}
  },
  "userdoc": {
    "methods": {}
  }
}