{
  "contractName": "Supplier",
  "abi": [
    {
      "anonymous": false,
      "inputs": [
        {
          "indexed": false,
          "internalType": "string",
          "name": "distributerID",
          "type": "string"
        },
        {
          "indexed": false,
          "internalType": "string",
          "name": "productID",
          "type": "string"
        },
        {
          "indexed": false,
          "internalType": "string",
          "name": "productname",
          "type": "string"
        },
        {
          "indexed": false,
          "internalType": "uint256",
          "name": "manufacturedate",
          "type": "uint256"
        },
        {
          "indexed": false,
          "internalType": "uint256",
          "name": "expierydate",
          "type": "uint256"
        },
        {
          "indexed": false,
          "internalType": "uint256",
          "name": "quantity",
          "type": "uint256"
        },
        {
          "indexed": false,
          "internalType": "uint256",
          "name": "cost",
          "type": "uint256"
        },
        {
          "indexed": false,
          "internalType": "string",
          "name": "image",
          "type": "string"
        }
      ],
      "name": "Distributer_products",
      "type": "event"
    },
    {
      "anonymous": false,
      "inputs": [
        {
          "indexed": false,
          "internalType": "string",
          "name": "supplierid",
          "type": "string"
        },
        {
          "indexed": false,
          "internalType": "string",
          "name": "materialid",
          "type": "string"
        },
        {
          "indexed": false,
          "internalType": "string",
          "name": "materialname",
          "type": "string"
        },
        {
          "indexed": false,
          "internalType": "uint256",
          "name": "quantity",
          "type": "uint256"
        },
        {
          "indexed": false,
          "internalType": "uint256",
          "name": "cost",
          "type": "uint256"
        },
        {
          "indexed": false,
          "internalType": "string",
          "name": "image",
          "type": "string"
        }
      ],
      "name": "SupplierAdditems",
      "type": "event"
    },
    {
      "anonymous": false,
      "inputs": [
        {
          "indexed": false,
          "internalType": "uint256",
          "name": "requestid",
          "type": "uint256"
        },
        {
          "indexed": false,
          "internalType": "string",
          "name": "manufactureid",
          "type": "string"
        },
        {
          "indexed": false,
          "internalType": "string",
          "name": "distributerID",
          "type": "string"
        },
        {
          "indexed": false,
          "internalType": "string",
          "name": "productID",
          "type": "string"
        },
        {
          "indexed": false,
          "internalType": "string",
          "name": "productname",
          "type": "string"
        },
        {
          "indexed": false,
          "internalType": "uint256",
          "name": "quantity",
          "type": "uint256"
        }
      ],
      "name": "distributer_to_manufacture",
      "type": "event"
    },
    {
      "anonymous": false,
      "inputs": [
        {
          "indexed": false,
          "internalType": "string",
          "name": "manufactureid",
          "type": "string"
        },
        {
          "indexed": false,
          "internalType": "string",
          "name": "productID",
          "type": "string"
        },
        {
          "indexed": false,
          "internalType": "string",
          "name": "productname",
          "type": "string"
        },
        {
          "indexed": false,
          "internalType": "uint256",
          "name": "manufacturedate",
          "type": "uint256"
        },
        {
          "indexed": false,
          "internalType": "uint256",
          "name": "expierydate",
          "type": "uint256"
        },
        {
          "indexed": false,
          "internalType": "uint256",
          "name": "quantity",
          "type": "uint256"
        },
        {
          "indexed": false,
          "internalType": "uint256",
          "name": "cost",
          "type": "uint256"
        },
        {
          "indexed": false,
          "internalType": "string",
          "name": "image",
          "type": "string"
        }
      ],
      "name": "manufactureproducts",
      "type": "event"
    },
    {
      "anonymous": false,
      "inputs": [
        {
          "indexed": false,
          "internalType": "uint256",
          "name": "requestid",
          "type": "uint256"
        },
        {
          "indexed": false,
          "internalType": "string",
          "name": "manufactureid",
          "type": "string"
        },
        {
          "indexed": false,
          "internalType": "string",
          "name": "supplierid",
          "type": "string"
        },
        {
          "indexed": false,
          "internalType": "string",
          "name": "materialid",
          "type": "string"
        },
        {
          "indexed": false,
          "internalType": "string",
          "name": "materialname",
          "type": "string"
        },
        {
          "indexed": false,
          "internalType": "uint256",
          "name": "quantity",
          "type": "uint256"
        }
      ],
      "name": "request_to_suppliers",
      "type": "event"
    },
    {
      "anonymous": false,
      "inputs": [
        {
          "indexed": false,
          "internalType": "string",
          "name": "retailerid",
          "type": "string"
        },
        {
          "indexed": false,
          "internalType": "string",
          "name": "productID",
          "type": "string"
        },
        {
          "indexed": false,
          "internalType": "string",
          "name": "productname",
          "type": "string"
        },
        {
          "indexed": false,
          "internalType": "uint256",
          "name": "manufacturedate",
          "type": "uint256"
        },
        {
          "indexed": false,
          "internalType": "uint256",
          "name": "expierydate",
          "type": "uint256"
        },
        {
          "indexed": false,
          "internalType": "uint256",
          "name": "quantity",
          "type": "uint256"
        },
        {
          "indexed": false,
          "internalType": "uint256",
          "name": "cost",
          "type": "uint256"
        },
        {
          "indexed": false,
          "internalType": "string",
          "name": "image",
          "type": "string"
        }
      ],
      "name": "retailer_add_productss",
      "type": "event"
    },
    {
      "anonymous": false,
      "inputs": [
        {
          "indexed": false,
          "internalType": "uint256",
          "name": "requestid",
          "type": "uint256"
        },
        {
          "indexed": false,
          "internalType": "string",
          "name": "distributerID",
          "type": "string"
        },
        {
          "indexed": false,
          "internalType": "string",
          "name": "retailerid",
          "type": "string"
        },
        {
          "indexed": false,
          "internalType": "string",
          "name": "productID",
          "type": "string"
        },
        {
          "indexed": false,
          "internalType": "string",
          "name": "productname",
          "type": "string"
        },
        {
          "indexed": false,
          "internalType": "uint256",
          "name": "quantity",
          "type": "uint256"
        }
      ],
      "name": "retailer_to_distributer",
      "type": "event"
    },
    {
      "inputs": [
        {
          "internalType": "uint256",
          "name": "",
          "type": "uint256"
        }
      ],
      "name": "disinvoice",
      "outputs": [
        {
          "internalType": "uint256",
          "name": "requestid",
          "type": "uint256"
        },
        {
          "internalType": "string",
          "name": "from1",
          "type": "string"
        },
        {
          "internalType": "string",
          "name": "to",
          "type": "string"
        },
        {
          "internalType": "string",
          "name": "productID",
          "type": "string"
        },
        {
          "internalType": "string",
          "name": "name",
          "type": "string"
        },
        {
          "internalType": "uint256",
          "name": "quantity",
          "type": "uint256"
        },
        {
          "internalType": "uint256",
          "name": "cost",
          "type": "uint256"
        },
        {
          "internalType": "uint256",
          "name": "totalcost",
          "type": "uint256"
        }
      ],
      "stateMutability": "view",
      "type": "function",
      "constant": true
    },
    {
      "inputs": [
        {
          "internalType": "uint256",
          "name": "",
          "type": "uint256"
        }
      ],
      "name": "disreq",
      "outputs": [
        {
          "internalType": "uint256",
          "name": "requestid",
          "type": "uint256"
        },
        {
          "internalType": "string",
          "name": "manufactureid",
          "type": "string"
        },
        {
          "internalType": "string",
          "name": "distributerID",
          "type": "string"
        },
        {
          "internalType": "string",
          "name": "productID",
          "type": "string"
        },
        {
          "internalType": "string",
          "name": "productname",
          "type": "string"
        },
        {
          "internalType": "uint256",
          "name": "quantity",
          "type": "uint256"
        },
        {
          "internalType": "enum Supplier.st",
          "name": "status",
          "type": "uint8"
        },
        {
          "internalType": "enum Supplier.st",
          "name": "status1",
          "type": "uint8"
        }
      ],
      "stateMutability": "view",
      "type": "function",
      "constant": true
    },
    {
      "inputs": [
        {
          "internalType": "string",
          "name": "",
          "type": "string"
        }
      ],
      "name": "distributer_product",
      "outputs": [
        {
          "internalType": "string",
          "name": "distributerID",
          "type": "string"
        },
        {
          "internalType": "string",
          "name": "productID",
          "type": "string"
        },
        {
          "internalType": "string",
          "name": "productname",
          "type": "string"
        },
        {
          "internalType": "uint256",
          "name": "manufacturedate",
          "type": "uint256"
        },
        {
          "internalType": "uint256",
          "name": "expierydate",
          "type": "uint256"
        },
        {
          "internalType": "uint256",
          "name": "quantity",
          "type": "uint256"
        },
        {
          "internalType": "uint256",
          "name": "cost",
          "type": "uint256"
        },
        {
          "internalType": "enum Supplier.st",
          "name": "status",
          "type": "uint8"
        },
        {
          "internalType": "string",
          "name": "image",
          "type": "string"
        }
      ],
      "stateMutability": "view",
      "type": "function",
      "constant": true
    },
    {
      "inputs": [
        {
          "internalType": "uint256",
          "name": "",
          "type": "uint256"
        }
      ],
      "name": "ginvoice",
      "outputs": [
        {
          "internalType": "uint256",
          "name": "requestid",
          "type": "uint256"
        },
        {
          "internalType": "string",
          "name": "from1",
          "type": "string"
        },
        {
          "internalType": "string",
          "name": "to",
          "type": "string"
        },
        {
          "internalType": "string",
          "name": "materialid",
          "type": "string"
        },
        {
          "internalType": "string",
          "name": "name",
          "type": "string"
        },
        {
          "internalType": "uint256",
          "name": "quantity",
          "type": "uint256"
        },
        {
          "internalType": "uint256",
          "name": "cost",
          "type": "uint256"
        },
        {
          "internalType": "uint256",
          "name": "totalcost",
          "type": "uint256"
        }
      ],
      "stateMutability": "view",
      "type": "function",
      "constant": true
    },
    {
      "inputs": [
        {
          "internalType": "uint256",
          "name": "",
          "type": "uint256"
        }
      ],
      "name": "manuinvoice",
      "outputs": [
        {
          "internalType": "uint256",
          "name": "requestid",
          "type": "uint256"
        },
        {
          "internalType": "string",
          "name": "from1",
          "type": "string"
        },
        {
          "internalType": "string",
          "name": "to",
          "type": "string"
        },
        {
          "internalType": "string",
          "name": "productID",
          "type": "string"
        },
        {
          "internalType": "string",
          "name": "name",
          "type": "string"
        },
        {
          "internalType": "uint256",
          "name": "quantity",
          "type": "uint256"
        },
        {
          "internalType": "uint256",
          "name": "cost",
          "type": "uint256"
        },
        {
          "internalType": "uint256",
          "name": "totalcost",
          "type": "uint256"
        }
      ],
      "stateMutability": "view",
      "type": "function",
      "constant": true
    },
    {
      "inputs": [
        {
          "internalType": "string",
          "name": "",
          "type": "string"
        }
      ],
      "name": "prduct",
      "outputs": [
        {
          "internalType": "string",
          "name": "manufactureid",
          "type": "string"
        },
        {
          "internalType": "string",
          "name": "productID",
          "type": "string"
        },
        {
          "internalType": "string",
          "name": "productname",
          "type": "string"
        },
        {
          "internalType": "uint256",
          "name": "manufacturedate",
          "type": "uint256"
        },
        {
          "internalType": "uint256",
          "name": "expierydate",
          "type": "uint256"
        },
        {
          "internalType": "uint256",
          "name": "quantity",
          "type": "uint256"
        },
        {
          "internalType": "uint256",
          "name": "cost",
          "type": "uint256"
        },
        {
          "internalType": "enum Supplier.st",
          "name": "status",
          "type": "uint8"
        },
        {
          "internalType": "string",
          "name": "image",
          "type": "string"
        }
      ],
      "stateMutability": "view",
      "type": "function",
      "constant": true
    },
    {
      "inputs": [
        {
          "internalType": "uint256",
          "name": "",
          "type": "uint256"
        }
      ],
      "name": "req",
      "outputs": [
        {
          "internalType": "uint256",
          "name": "requestid",
          "type": "uint256"
        },
        {
          "internalType": "string",
          "name": "manufactureid",
          "type": "string"
        },
        {
          "internalType": "string",
          "name": "supplierid",
          "type": "string"
        },
        {
          "internalType": "string",
          "name": "materialid",
          "type": "string"
        },
        {
          "internalType": "string",
          "name": "materialname",
          "type": "string"
        },
        {
          "internalType": "uint256",
          "name": "quantity",
          "type": "uint256"
        },
        {
          "internalType": "enum Supplier.st",
          "name": "status",
          "type": "uint8"
        },
        {
          "internalType": "enum Supplier.st",
          "name": "status1",
          "type": "uint8"
        }
      ],
      "stateMutability": "view",
      "type": "function",
      "constant": true
    },
    {
      "inputs": [
        {
          "internalType": "string",
          "name": "",
          "type": "string"
        }
      ],
      "name": "retailerpro",
      "outputs": [
        {
          "internalType": "string",
          "name": "retailerid",
          "type": "string"
        },
        {
          "internalType": "string",
          "name": "productID",
          "type": "string"
        },
        {
          "internalType": "string",
          "name": "productname",
          "type": "string"
        },
        {
          "internalType": "uint256",
          "name": "manufacturedate",
          "type": "uint256"
        },
        {
          "internalType": "uint256",
          "name": "expierydate",
          "type": "uint256"
        },
        {
          "internalType": "uint256",
          "name": "quantity",
          "type": "uint256"
        },
        {
          "internalType": "uint256",
          "name": "cost",
          "type": "uint256"
        },
        {
          "internalType": "enum Supplier.st",
          "name": "status",
          "type": "uint8"
        },
        {
          "internalType": "string",
          "name": "image",
          "type": "string"
        }
      ],
      "stateMutability": "view",
      "type": "function",
      "constant": true
    },
    {
      "inputs": [
        {
          "internalType": "uint256",
          "name": "",
          "type": "uint256"
        }
      ],
      "name": "retailerreq",
      "outputs": [
        {
          "internalType": "uint256",
          "name": "requestid",
          "type": "uint256"
        },
        {
          "internalType": "string",
          "name": "distributerID",
          "type": "string"
        },
        {
          "internalType": "string",
          "name": "retailerid",
          "type": "string"
        },
        {
          "internalType": "string",
          "name": "productID",
          "type": "string"
        },
        {
          "internalType": "string",
          "name": "productname",
          "type": "string"
        },
        {
          "internalType": "uint256",
          "name": "quantity",
          "type": "uint256"
        },
        {
          "internalType": "enum Supplier.st",
          "name": "status",
          "type": "uint8"
        }
      ],
      "stateMutability": "view",
      "type": "function",
      "constant": true
    },
    {
      "inputs": [
        {
          "internalType": "string",
          "name": "",
          "type": "string"
        }
      ],
      "name": "slist",
      "outputs": [
        {
          "internalType": "string",
          "name": "supplierid",
          "type": "string"
        },
        {
          "internalType": "string",
          "name": "materialid",
          "type": "string"
        },
        {
          "internalType": "string",
          "name": "materialname",
          "type": "string"
        },
        {
          "internalType": "uint256",
          "name": "quantity",
          "type": "uint256"
        },
        {
          "internalType": "uint256",
          "name": "cost",
          "type": "uint256"
        },
        {
          "internalType": "string",
          "name": "image",
          "type": "string"
        }
      ],
      "stateMutability": "view",
      "type": "function",
      "constant": true
    },
    {
      "inputs": [
        {
          "internalType": "string",
          "name": "_supplierid",
          "type": "string"
        },
        {
          "internalType": "string",
          "name": "_materialid",
          "type": "string"
        },
        {
          "internalType": "string",
          "name": "_materialname",
          "type": "string"
        },
        {
          "internalType": "uint256",
          "name": "_quantity",
          "type": "uint256"
        },
        {
          "internalType": "uint256",
          "name": "_cost",
          "type": "uint256"
        },
        {
          "internalType": "string",
          "name": "_image",
          "type": "string"
        }
      ],
      "name": "supplier_add_materils",
      "outputs": [],
      "stateMutability": "nonpayable",
      "type": "function"
    },
    {
      "inputs": [
        {
          "internalType": "string",
          "name": "_materialid",
          "type": "string"
        },
        {
          "internalType": "uint256",
          "name": "_quantity",
          "type": "uint256"
        }
      ],
      "name": "incrementsup",
      "outputs": [],
      "stateMutability": "nonpayable",
      "type": "function"
    },
    {
      "inputs": [
        {
          "internalType": "uint256",
          "name": "requestid",
          "type": "uint256"
        },
        {
          "internalType": "string",
          "name": "_materialid",
          "type": "string"
        },
        {
          "internalType": "uint256",
          "name": "_quantity",
          "type": "uint256"
        }
      ],
      "name": "approvestatus_sup",
      "outputs": [
        {
          "internalType": "uint256",
          "name": "",
          "type": "uint256"
        }
      ],
      "stateMutability": "nonpayable",
      "type": "function"
    },
    {
      "inputs": [
        {
          "internalType": "uint256",
          "name": "requestid",
          "type": "uint256"
        }
      ],
      "name": "rejectstatus_sup",
      "outputs": [],
      "stateMutability": "nonpayable",
      "type": "function"
    },
    {
      "inputs": [
        {
          "internalType": "uint256",
          "name": "_requestid",
          "type": "uint256"
        },
        {
          "internalType": "string",
          "name": "_from1",
          "type": "string"
        },
        {
          "internalType": "string",
          "name": "_to",
          "type": "string"
        },
        {
          "internalType": "string",
          "name": "_materialid",
          "type": "string"
        },
        {
          "internalType": "string",
          "name": "_name",
          "type": "string"
        },
        {
          "internalType": "uint256",
          "name": "_quantity",
          "type": "uint256"
        }
      ],
      "name": "addinvoice",
      "outputs": [],
      "stateMutability": "nonpayable",
      "type": "function"
    },
    {
      "inputs": [
        {
          "internalType": "string",
          "name": "_manufactureid",
          "type": "string"
        },
        {
          "internalType": "string",
          "name": "_productID",
          "type": "string"
        },
        {
          "internalType": "string",
          "name": "_productname",
          "type": "string"
        },
        {
          "internalType": "uint256",
          "name": "_manufacturedate",
          "type": "uint256"
        },
        {
          "internalType": "uint256",
          "name": "_expierydate",
          "type": "uint256"
        },
        {
          "internalType": "uint256",
          "name": "_quantity",
          "type": "uint256"
        },
        {
          "internalType": "uint256",
          "name": "_cost",
          "type": "uint256"
        },
        {
          "internalType": "string",
          "name": "_image",
          "type": "string"
        }
      ],
      "name": "manufacture_add_products",
      "outputs": [],
      "stateMutability": "nonpayable",
      "type": "function"
    },
    {
      "inputs": [
        {
          "internalType": "uint256",
          "name": "requestid",
          "type": "uint256"
        }
      ],
      "name": "receivedmat",
      "outputs": [],
      "stateMutability": "nonpayable",
      "type": "function"
    },
    {
      "inputs": [
        {
          "internalType": "string",
          "name": "_productID",
          "type": "string"
        },
        {
          "internalType": "uint256",
          "name": "_quantity",
          "type": "uint256"
        }
      ],
      "name": "inccreaseman_product",
      "outputs": [],
      "stateMutability": "nonpayable",
      "type": "function"
    },
    {
      "inputs": [
        {
          "internalType": "uint256",
          "name": "_requestid",
          "type": "uint256"
        },
        {
          "internalType": "string",
          "name": "_from1",
          "type": "string"
        },
        {
          "internalType": "string",
          "name": "_to",
          "type": "string"
        },
        {
          "internalType": "string",
          "name": "_productID",
          "type": "string"
        },
        {
          "internalType": "string",
          "name": "_name",
          "type": "string"
        },
        {
          "internalType": "uint256",
          "name": "_quantity",
          "type": "uint256"
        }
      ],
      "name": "manufacturinvoice",
      "outputs": [],
      "stateMutability": "nonpayable",
      "type": "function"
    },
    {
      "inputs": [
        {
          "internalType": "uint256",
          "name": "requestid",
          "type": "uint256"
        }
      ],
      "name": "cancelrequest",
      "outputs": [],
      "stateMutability": "nonpayable",
      "type": "function"
    },
    {
      "inputs": [
        {
          "internalType": "string",
          "name": "_manufactureid",
          "type": "string"
        },
        {
          "internalType": "string",
          "name": "_supplierid",
          "type": "string"
        },
        {
          "internalType": "string",
          "name": "_materialid",
          "type": "string"
        },
        {
          "internalType": "string",
          "name": "_materialname",
          "type": "string"
        },
        {
          "internalType": "uint256",
          "name": "_quantity",
          "type": "uint256"
        }
      ],
      "name": "request_to_supplier",
      "outputs": [],
      "stateMutability": "nonpayable",
      "type": "function"
    },
    {
      "inputs": [
        {
          "internalType": "uint256",
          "name": "requestid",
          "type": "uint256"
        },
        {
          "internalType": "string",
          "name": "_manufactureid",
          "type": "string"
        },
        {
          "internalType": "uint256",
          "name": "_quantity",
          "type": "uint256"
        }
      ],
      "name": "addreqto_suplier",
      "outputs": [],
      "stateMutability": "nonpayable",
      "type": "function"
    },
    {
      "inputs": [
        {
          "internalType": "uint256",
          "name": "requestid",
          "type": "uint256"
        },
        {
          "internalType": "string",
          "name": "_productID",
          "type": "string"
        },
        {
          "internalType": "uint256",
          "name": "_quantity",
          "type": "uint256"
        }
      ],
      "name": "approvestatus_mun",
      "outputs": [],
      "stateMutability": "nonpayable",
      "type": "function"
    },
    {
      "inputs": [
        {
          "internalType": "uint256",
          "name": "requestid",
          "type": "uint256"
        }
      ],
      "name": "rejectstatus_man",
      "outputs": [],
      "stateMutability": "nonpayable",
      "type": "function"
    },
    {
      "inputs": [
        {
          "internalType": "string",
          "name": "_distributerID",
          "type": "string"
        },
        {
          "internalType": "string",
          "name": "_productID",
          "type": "string"
        },
        {
          "internalType": "string",
          "name": "_productname",
          "type": "string"
        },
        {
          "internalType": "uint256",
          "name": "_quantity",
          "type": "uint256"
        },
        {
          "internalType": "uint256",
          "name": "_cost",
          "type": "uint256"
        },
        {
          "internalType": "string",
          "name": "_image",
          "type": "string"
        }
      ],
      "name": "distributer_add_products",
      "outputs": [],
      "stateMutability": "nonpayable",
      "type": "function"
    },
    {
      "inputs": [
        {
          "internalType": "string",
          "name": "_productID",
          "type": "string"
        },
        {
          "internalType": "uint256",
          "name": "_quantity",
          "type": "uint256"
        }
      ],
      "name": "increase_dis_product",
      "outputs": [],
      "stateMutability": "nonpayable",
      "type": "function"
    },
    {
      "inputs": [
        {
          "internalType": "uint256",
          "name": "_requestid",
          "type": "uint256"
        },
        {
          "internalType": "string",
          "name": "_from1",
          "type": "string"
        },
        {
          "internalType": "string",
          "name": "_to",
          "type": "string"
        },
        {
          "internalType": "string",
          "name": "_productID",
          "type": "string"
        },
        {
          "internalType": "string",
          "name": "_name",
          "type": "string"
        },
        {
          "internalType": "uint256",
          "name": "_quantity",
          "type": "uint256"
        }
      ],
      "name": "distinvoice",
      "outputs": [],
      "stateMutability": "nonpayable",
      "type": "function"
    },
    {
      "inputs": [
        {
          "internalType": "string",
          "name": "_manufactureid",
          "type": "string"
        },
        {
          "internalType": "string",
          "name": "_distributerID",
          "type": "string"
        },
        {
          "internalType": "string",
          "name": "_productID",
          "type": "string"
        },
        {
          "internalType": "string",
          "name": "_productname",
          "type": "string"
        },
        {
          "internalType": "uint256",
          "name": "_quantity",
          "type": "uint256"
        }
      ],
      "name": "request_to_manufacture",
      "outputs": [],
      "stateMutability": "nonpayable",
      "type": "function"
    },
    {
      "inputs": [
        {
          "internalType": "uint256",
          "name": "requestid",
          "type": "uint256"
        },
        {
          "internalType": "string",
          "name": "_distributerID",
          "type": "string"
        },
        {
          "internalType": "uint256",
          "name": "_quantity",
          "type": "uint256"
        }
      ],
      "name": "addreqto_manufacture",
      "outputs": [],
      "stateMutability": "nonpayable",
      "type": "function"
    },
    {
      "inputs": [
        {
          "internalType": "uint256",
          "name": "requestid",
          "type": "uint256"
        }
      ],
      "name": "cancelrequestatdistributer",
      "outputs": [],
      "stateMutability": "nonpayable",
      "type": "function"
    },
    {
      "inputs": [
        {
          "internalType": "uint256",
          "name": "requestid",
          "type": "uint256"
        },
        {
          "internalType": "string",
          "name": "_productID",
          "type": "string"
        },
        {
          "internalType": "uint256",
          "name": "_quantity",
          "type": "uint256"
        }
      ],
      "name": "approvestatus_dis",
      "outputs": [],
      "stateMutability": "nonpayable",
      "type": "function"
    },
    {
      "inputs": [
        {
          "internalType": "uint256",
          "name": "requestid",
          "type": "uint256"
        }
      ],
      "name": "rejectstatus_dis",
      "outputs": [],
      "stateMutability": "nonpayable",
      "type": "function"
    },
    {
      "inputs": [
        {
          "internalType": "uint256",
          "name": "requestid",
          "type": "uint256"
        }
      ],
      "name": "receivedatdistributer",
      "outputs": [],
      "stateMutability": "nonpayable",
      "type": "function"
    },
    {
      "inputs": [
        {
          "internalType": "string",
          "name": "_retailerid",
          "type": "string"
        },
        {
          "internalType": "string",
          "name": "_productID",
          "type": "string"
        },
        {
          "internalType": "string",
          "name": "_productname",
          "type": "string"
        },
        {
          "internalType": "uint256",
          "name": "_quantity",
          "type": "uint256"
        },
        {
          "internalType": "uint256",
          "name": "_cost",
          "type": "uint256"
        },
        {
          "internalType": "string",
          "name": "_image",
          "type": "string"
        }
      ],
      "name": "retailer_add_products",
      "outputs": [],
      "stateMutability": "nonpayable",
      "type": "function"
    },
    {
      "inputs": [
        {
          "internalType": "string",
          "name": "_productID",
          "type": "string"
        },
        {
          "internalType": "uint256",
          "name": "_quantity",
          "type": "uint256"
        }
      ],
      "name": "decrease_retailer_product",
      "outputs": [],
      "stateMutability": "nonpayable",
      "type": "function"
    },
    {
      "inputs": [
        {
          "internalType": "string",
          "name": "_productID",
          "type": "string"
        },
        {
          "internalType": "uint256",
          "name": "_quantity",
          "type": "uint256"
        }
      ],
      "name": "increase_retailer_product",
      "outputs": [],
      "stateMutability": "nonpayable",
      "type": "function"
    },
    {
      "inputs": [
        {
          "internalType": "string",
          "name": "_distributerID",
          "type": "string"
        },
        {
          "internalType": "string",
          "name": "_retailerid",
          "type": "string"
        },
        {
          "internalType": "string",
          "name": "_productID",
          "type": "string"
        },
        {
          "internalType": "string",
          "name": "_productname",
          "type": "string"
        },
        {
          "internalType": "uint256",
          "name": "_quantity",
          "type": "uint256"
        }
      ],
      "name": "request_to_distributer",
      "outputs": [],
      "stateMutability": "nonpayable",
      "type": "function"
    },
    {
      "inputs": [
        {
          "internalType": "uint256",
          "name": "requestid",
          "type": "uint256"
        },
        {
          "internalType": "uint256",
          "name": "_quantity",
          "type": "uint256"
        }
      ],
      "name": "addreqto_distributer",
      "outputs": [],
      "stateMutability": "nonpayable",
      "type": "function"
    },
    {
      "inputs": [
        {
          "internalType": "uint256",
          "name": "requestid",
          "type": "uint256"
        }
      ],
      "name": "cancelrequestatretailer",
      "outputs": [],
      "stateMutability": "nonpayable",
      "type": "function"
    }
  ],
  "bytecode": "0x608060405234801561001057600080fd5b506132b6806100206000396000f3fe608060405234801561001057600080fd5b506004361061022c5760003560e01c80638222dd871161013b578063c179286f116100b8578063d93385731161007c578063d933857314610531578063e101753f14610544578063f599224f14610557578063f7b1e33a1461056a578063fc9287871461057d5761022c565b8063c179286f146104d2578063c7af17c2146104e5578063c7f91a4d146104f8578063d064a27b1461050b578063d3b250161461051e5761022c565b80639e573a1e116100ff5780639e573a1e1461044c578063b7bb29671461045f578063bab89db814610486578063bd89e39a14610499578063bfb8658d146104ac5761022c565b80638222dd87146103ed57806385825068146104005780638c80a32314610413578063910606d71461042657806392609094146104395761022c565b8063384b2822116101c95780635b2c13c41161018d5780635b2c13c4146103815780637038271b146103945780637bb25114146103a75780637de6ebb1146103ba5780638148a5c5146103da5761022c565b8063384b2822146103105780633be0c645146103355780633bec6fbc146103485780633c99a8321461035b5780635576b1b91461036e5761022c565b8062af4f011461023157806304af634e1461026157806306d704e6146102765780630fa3e3f7146102895780631a9c37351461029c5780631a9c8eda146102af5780631bccd5cd146102c257806323c4ad4d146102d557806333212f00146102fd575b600080fd5b61024461023f366004612cdc565b610590565b6040516102589897969594939291906131ce565b60405180910390f35b61027461026f366004612cdc565b6107fb565b005b610274610284366004612cdc565b610822565b610274610297366004612a64565b610845565b6102746102aa366004612cdc565b6109c1565b6102746102bd366004612cdc565b6109e2565b6102746102d0366004612c9a565b610a03565b6102e86102e3366004612a2a565b610a4e565b60405161025899989796959493929190612fac565b61027461030b366004612bcc565b610ce0565b61032361031e366004612a2a565b610e86565b60405161025896959493929190612ed2565b610274610343366004612cf4565b611109565b610274610356366004612b13565b61124f565b6102e8610369366004612a2a565b61143e565b61027461037c366004612cf4565b6114b6565b61027461038f366004612dad565b61157d565b6102746103a2366004612cdc565b611633565b6102446103b5366004612cdc565b611657565b6103cd6103c8366004612dad565b6116c7565b6040516102589190613060565b6102746103e8366004612c9a565b61179c565b6102746103fb366004612cf4565b6117d0565b61027461040e366004612cdc565b611897565b610274610421366004612b13565b6118ba565b610274610434366004612dad565b6119ce565b6102e8610447366004612a2a565b611a91565b61027461045a366004612b13565b611b09565b61047261046d366004612cdc565b611cb0565b604051610258989796959493929190613146565b610472610494366004612cdc565b611f22565b6102746104a7366004612c9a565b611f94565b6104bf6104ba366004612cdc565b611fc8565b60405161025897969594939291906130cf565b6102746104e0366004612dad565b612231565b6102746104f3366004612c9a565b6122c4565b610274610506366004612a64565b6122f8565b610274610519366004612dfa565b61243a565b61027461052c366004612cdc565b61247b565b61027461053f366004612c9a565b61249c565b610274610552366004612cdc565b6124e7565b610274610565366004612dad565b61250d565b610274610578366004612a64565b6125d1565b61024461058b366004612cdc565b61273c565b6004602090815260009182526040918290208054600180830180548651600293821615610100026000190190911692909204601f81018690048602830186019096528582529194929390929083018282801561062d5780601f106106025761010080835404028352916020019161062d565b820191906000526020600020905b81548152906001019060200180831161061057829003601f168201915b50505060028085018054604080516020601f60001961010060018716150201909416959095049283018590048502810185019091528181529596959450909250908301828280156106bf5780601f10610694576101008083540402835291602001916106bf565b820191906000526020600020905b8154815290600101906020018083116106a257829003601f168201915b5050505060038301805460408051602060026001851615610100026000190190941693909304601f810184900484028201840190925281815294959493509083018282801561074f5780601f106107245761010080835404028352916020019161074f565b820191906000526020600020905b81548152906001019060200180831161073257829003601f168201915b5050505060048301805460408051602060026001851615610100026000190190941693909304601f81018490048402820184019092528181529495949350908301828280156107df5780601f106107b4576101008083540402835291602001916107df565b820191906000526020600020905b8154815290600101906020018083116107c257829003601f168201915b5050505050908060050154908060060154908060070154905088565b60008181526009602052604090206006018054600e919060ff19166001835b021790555050565b6000818152600b602052604090206006018054600e919060ff191660018361081a565b60058054600181019091556108586127ae565b6040518061010001604052808381526020018881526020018781526020018681526020018581526020018481526020016007600e81111561089557fe5b8152600d6020918201526000848152600982526040902082518155828201518051939450849391926108cf926001850192909101906127fe565b50604082015180516108eb9160028401916020909101906127fe565b50606082015180516109079160038401916020909101906127fe565b50608082015180516109239160048401916020909101906127fe565b5060a0820151600582015560c082015160068201805460ff1916600183600e81111561094b57fe5b021790555060e082015160068201805461ff00191661010083600e81111561096f57fe5b02179055509050507f719523099604bd99f1c90fad70799f2f4aa158a392b4d208540b01299e0fb2088288888888886040516109b096959493929190613069565b60405180910390a150505050505050565b60008181526009602052604090206006908101805460ff191660018361081a565b6000818152600b602052604090206006908101805460ff191660018361081a565b80600383604051610a149190612e47565b90815260200160405180910390206005015401600383604051610a379190612e47565b908152604051908190036020019020600501555050565b805160208183018101805160078252928201938201939093209190925280546040805160026001841615610100026000190190931692909204601f8101859004850283018501909152808252919290918391830182828015610af15780601f10610ac657610100808354040283529160200191610af1565b820191906000526020600020905b815481529060010190602001808311610ad457829003601f168201915b505050505090806001018054600181600116156101000203166002900480601f016020809104026020016040519081016040528092919081815260200182805460018160011615610100020316600290048015610b8f5780601f10610b6457610100808354040283529160200191610b8f565b820191906000526020600020905b815481529060010190602001808311610b7257829003601f168201915b50505060028085018054604080516020601f6000196101006001871615020190941695909504928301859004850281018501909152818152959695945090925090830182828015610c215780601f10610bf657610100808354040283529160200191610c21565b820191906000526020600020905b815481529060010190602001808311610c0457829003601f168201915b505050506003830154600484015460058501546006860154600787015460088801805460408051602060026101006001861615026000190190941693909304601f8101849004840282018401909252818152999a97999698509496939560ff9093169490830182828015610cd65780601f10610cab57610100808354040283529160200191610cd6565b820191906000526020600020905b815481529060010190602001808311610cb957829003601f168201915b5050505050905089565b610ce861287c565b6040518061012001604052808a8152602001898152602001888152602001878152602001866224ea0002880181526020018581526020018481526020016009600e811115610d3257fe5b815260200183815250905080600389604051610d4e9190612e47565b90815260200160405180910390206000820151816000019080519060200190610d789291906127fe565b506020828101518051610d9192600185019201906127fe565b5060408201518051610dad9160028401916020909101906127fe565b50606082015160038201556080820151600482015560a0820151600582015560c0820151600682015560e082015160078201805460ff1916600183600e811115610df357fe5b02179055506101008201518051610e149160088401916020909101906127fe565b509050507f6dedb1b4ed3d99ad4a756cefdca170931d6c1118b2f444bee07767e718b90dfc8989898960038d604051610e4d9190612e47565b90815260405190819003602001812060040154610e7395949392918b908b908b90612f37565b60405180910390a1505050505050505050565b8051602081830181018051600180835293830194830194909420939052825460408051600294831615610100026000190190921693909304601f8101839004830282018301909352828152918391830182828015610f255780601f10610efa57610100808354040283529160200191610f25565b820191906000526020600020905b815481529060010190602001808311610f0857829003601f168201915b505050505090806001018054600181600116156101000203166002900480601f016020809104026020016040519081016040528092919081815260200182805460018160011615610100020316600290048015610fc35780601f10610f9857610100808354040283529160200191610fc3565b820191906000526020600020905b815481529060010190602001808311610fa657829003601f168201915b50505060028085018054604080516020601f60001961010060018716150201909416959095049283018590048502810185019091528181529596959450909250908301828280156110555780601f1061102a57610100808354040283529160200191611055565b820191906000526020600020905b81548152906001019060200180831161103857829003601f168201915b505050505090806003015490806004015490806005018054600181600116156101000203166002900480601f0160208091040260200160405190810160405280929190818152602001828054600181600116156101000203166002900480156110ff5780601f106110d4576101008083540402835291602001916110ff565b820191906000526020600020905b8154815290600101906020018083116110e257829003601f168201915b5050505050905086565b60008160038560405161111c9190612e47565b9081526020016040518091039020600601540290506111396128d3565b6040518061010001604052808981526020018881526020018781526020018681526020018581526020018481526020016003876040516111799190612e47565b908152602001604051809103902060060154815260200183815250905080600460008a81526020019081526020016000206000820151816000015560208201518160010190805190602001906111d09291906127fe565b50604082015180516111ec9160028401916020909101906127fe565b50606082015180516112089160038401916020909101906127fe565b50608082015180516112249160048401916020909101906127fe565b5060a0820151600582015560c0820151600682015560e0909101516007909101555050505050505050565b61125761287c565b6040518061012001604052808881526020018781526020018681526020016003886040516112859190612e47565b90815260200160405180910390206003015481526020016003886040516112ac9190612e47565b9081526020016040518091039020600401548152602001858152602001848152602001600b600e8111156112dc57fe5b815260200183815250905080600a876040516112f89190612e47565b908152602001604051809103902060008201518160000190805190602001906113229291906127fe565b50602082810151805161133b92600185019201906127fe565b50604082015180516113579160028401916020909101906127fe565b50606082015160038201556080820151600482015560a0820151600582015560c0820151600682015560e082015160078201805460ff1916600183600e81111561139d57fe5b021790555061010082015180516113be9160088401916020909101906127fe565b509050507fba62d433b544d8639a7d852ec4c9dd4727cfb28e7a6999cdb0ccf491b4edcca787878760038a6040516113f69190612e47565b90815260200160405180910390206003015460038b6040516114189190612e47565b908152604051908190036020018120600401546109b095949392918b908b908b90612f37565b805160208183018101805160038252928201938201939093209190925280546040805160026001841615610100026000190190931692909204601f8101859004850283018501909152808252919290918391830182828015610af15780601f10610ac657610100808354040283529160200191610af1565b6000816007856040516114c99190612e47565b9081526020016040518091039020600601540290506114e66128d3565b6040518061010001604052808981526020018881526020018781526020018681526020018581526020018481526020016007876040516115269190612e47565b908152602001604051809103902060060154815260200183815250905080600860008a81526020019081526020016000206000820151816000015560208201518160010190805190602001906111d09291906127fe565b600083815260096020526040908190206005015490516003906115a1908590612e47565b90815260200160405180910390206005015410156115be57600080fd5b600083815260096020526040908190206006018054600560ff199091161761ff0019166109001790555181906003906115f8908590612e47565b9081526020016040518091039020600501540360038360405161161b9190612e47565b90815260405190819003602001902060050155505050565b6000818152600660208190526040909120018054600e919060ff191660018361081a565b60026020818152600092835260409283902080546001808301805487519281161561010002600019011695909504601f810185900485028201850190965285815290949193909290919083018282801561062d5780601f106106025761010080835404028352916020019161062d565b6000838152600660205260408082206005015490516001906116ea908690612e47565b908152602001604051809103902060030154116117225760405162461bcd60e51b815260040161171990613032565b60405180910390fd5b600084815260066020819052604091829020018054600560ff199091161761ff00191661080017905551829060019061175c908690612e47565b9081526020016040518091039020600301540360018460405161177f9190612e47565b908152604051908190036020019020600301555060019392505050565b80600a836040516117ad9190612e47565b90815260200160405180910390206005015401600a83604051610a379190612e47565b6000816001856040516117e39190612e47565b9081526020016040518091039020600401540290506118006128d3565b6040518061010001604052808981526020018881526020018781526020018681526020018581526020018481526020016001876040516118409190612e47565b908152602001604051809103902060040154815260200183815250905080600260008a81526020019081526020016000206000820151816000015560208201518160010190805190602001906111d09291906127fe565b60008181526009602052604090206006018054600a919060ff191660018361081a565b6118c2612918565b6040518060c00160405280888152602001878152602001868152602001858152602001848152602001838152509050806001876040516119029190612e47565b9081526020016040518091039020600082015181600001908051906020019061192c9291906127fe565b50602082810151805161194592600185019201906127fe565b50604082015180516119619160028401916020909101906127fe565b50606082015160038201556080820151600482015560a082015180516119919160058401916020909101906127fe565b509050507f141a9017211df8e545aa3418abdd07221aff8648efd2006c1ebaa2e14adca9e98787878787876040516109b096959493929190612ed2565b60008381526009602052604090205483148015611a0a5750600760008481526009602052604090206006015460ff16600e811115611a0857fe5b145b8015611a6f575081604051602001611a229190612e47565b60408051601f198184030181528282528051602091820120600087815260098352929092209192611a57926002019101612e63565b60405160208183030381529060405280519060200120145b611a7857600080fd5b6000928352600960205260409092206005019190915550565b8051602081830181018051600a8252928201938201939093209190925280546040805160026001841615610100026000190190931692909204601f8101859004850283018501909152808252919290918391830182828015610af15780601f10610ac657610100808354040283529160200191610af1565b611b1161287c565b604051806101200160405280888152602001878152602001868152602001600388604051611b3f9190612e47565b9081526020016040518091039020600301548152602001600388604051611b669190612e47565b9081526020016040518091039020600401548152602001858152602001848152602001600a600e811115611b9657fe5b815260200183815250905080600787604051611bb29190612e47565b90815260200160405180910390206000820151816000019080519060200190611bdc9291906127fe565b506020828101518051611bf592600185019201906127fe565b5060408201518051611c119160028401916020909101906127fe565b50606082015160038201556080820151600482015560a0820151600582015560c0820151600682015560e082015160078201805460ff1916600183600e811115611c5757fe5b02179055506101008201518051611c789160088401916020909101906127fe565b509050507f2d56a5a07e06e68819361d002a0e6f3fb004b2fbfb3200ae75f12d48c58cecc887878760038a6040516113f69190612e47565b6006602090815260009182526040918290208054600180830180548651600293821615610100026000190190911692909204601f810186900486028301860190965285825291949293909290830182828015611d4d5780601f10611d2257610100808354040283529160200191611d4d565b820191906000526020600020905b815481529060010190602001808311611d3057829003601f168201915b50505060028085018054604080516020601f6000196101006001871615020190941695909504928301859004850281018501909152818152959695945090925090830182828015611ddf5780601f10611db457610100808354040283529160200191611ddf565b820191906000526020600020905b815481529060010190602001808311611dc257829003601f168201915b5050505060038301805460408051602060026001851615610100026000190190941693909304601f8101849004840282018401909252818152949594935090830182828015611e6f5780601f10611e4457610100808354040283529160200191611e6f565b820191906000526020600020905b815481529060010190602001808311611e5257829003601f168201915b5050505060048301805460408051602060026001851615610100026000190190941693909304601f8101849004840282018401909252818152949594935090830182828015611eff5780601f10611ed457610100808354040283529160200191611eff565b820191906000526020600020905b815481529060010190602001808311611ee257829003601f168201915b50505050600583015460069093015491929160ff80821692506101009091041688565b6009602090815260009182526040918290208054600180830180548651600293821615610100026000190190911692909204601f810186900486028301860190965285825291949293909290830182828015611d4d5780601f10611d2257610100808354040283529160200191611d4d565b80600a83604051611fa59190612e47565b90815260200160405180910390206005015403600a83604051610a379190612e47565b600b602090815260009182526040918290208054600180830180548651600293821615610100026000190190911692909204601f8101869004860283018601909652858252919492939092908301828280156120655780601f1061203a57610100808354040283529160200191612065565b820191906000526020600020905b81548152906001019060200180831161204857829003601f168201915b50505060028085018054604080516020601f60001961010060018716150201909416959095049283018590048502810185019091528181529596959450909250908301828280156120f75780601f106120cc576101008083540402835291602001916120f7565b820191906000526020600020905b8154815290600101906020018083116120da57829003601f168201915b5050505060038301805460408051602060026001851615610100026000190190941693909304601f81018490048402820184019092528181529495949350908301828280156121875780601f1061215c57610100808354040283529160200191612187565b820191906000526020600020905b81548152906001019060200180831161216a57829003601f168201915b5050505060048301805460408051602060026001851615610100026000190190941693909304601f81018490048402820184019092528181529495949350908301828280156122175780601f106121ec57610100808354040283529160200191612217565b820191906000526020600020905b8154815290600101906020018083116121fa57829003601f168201915b50505050600583015460069093015491929160ff16905087565b6000838152600b602052604090819020600501549051600790612255908590612e47565b908152602001604051809103902060050154101561227257600080fd5b6000838152600b602052604090819020600601805460ff191660051790555181906007906122a1908590612e47565b9081526020016040518091039020600501540360078360405161161b9190612e47565b806007836040516122d59190612e47565b90815260200160405180910390206005015401600783604051610a379190612e47565b600580546001810190915561230b61294e565b6040518060e001604052808381526020018881526020018781526020018681526020018581526020018481526020016007600e81111561234757fe5b90526000838152600b60209081526040909120825181558183015180519394508493919261237d926001850192909101906127fe565b50604082015180516123999160028401916020909101906127fe565b50606082015180516123b59160038401916020909101906127fe565b50608082015180516123d19160048401916020909101906127fe565b5060a0820151600582015560c082015160068201805460ff1916600183600e8111156123f957fe5b02179055509050507f7b6e730ee5f4a746ed868cda23354e19d99d448b4b235a933743feb8e62521868288888888886040516109b096959493929190613069565b60076000838152600b602052604090206006015460ff16600e81111561245c57fe5b1461246657600080fd5b6000918252600b602052604090912060050155565b60008181526006602081905260409091208101805460ff191660018361081a565b806001836040516124ad9190612e47565b908152602001604051809103902060030154016001836040516124d09190612e47565b908152604051908190036020019020600301555050565b60008181526006602081905260409091200180546009919061ff0019166101008361081a565b6000838152600660205260409020548314801561254a575060076000848152600660208190526040909120015460ff16600e81111561254857fe5b145b80156125af5750816040516020016125629190612e47565b60408051601f198184030181528282528051602091820120600087815260068352929092209192612597926001019101612e63565b60405160208183030381529060405280519060200120145b6125b857600080fd5b6000928352600660205260409092206005019190915550565b60058054600181019091556125e46127ae565b6040518061010001604052808381526020018881526020018781526020018681526020018581526020018481526020016007600e81111561262157fe5b8152600d60209182015260008481526006825260409020825181558282015180519394508493919261265b926001850192909101906127fe565b50604082015180516126779160028401916020909101906127fe565b50606082015180516126939160038401916020909101906127fe565b50608082015180516126af9160048401916020909101906127fe565b5060a0820151600582015560c082015160068201805460ff1916600183600e8111156126d757fe5b021790555060e082015160068201805461ff00191661010083600e8111156126fb57fe5b02179055509050507f75ab7229c03fcebceab7b040e5fb7b5a172e605444e5ec0695f0dd18e2ece6b78288888888886040516109b096959493929190613069565b6008602090815260009182526040918290208054600180830180548651600293821615610100026000190190911692909204601f81018690048602830186019096528582529194929390929083018282801561062d5780601f106106025761010080835404028352916020019161062d565b6040518061010001604052806000815260200160608152602001606081526020016060815260200160608152602001600081526020016000600e8111156127f157fe5b815260200160005b905290565b828054600181600116156101000203166002900490600052602060002090601f016020900481019282601f1061283f57805160ff191683800117855561286c565b8280016001018555821561286c579182015b8281111561286c578251825591602001919060010190612851565b50612878929150612990565b5090565b604051806101200160405280606081526020016060815260200160608152602001600081526020016000815260200160008152602001600081526020016000600e8111156128c657fe5b8152602001606081525090565b60405180610100016040528060008152602001606081526020016060815260200160608152602001606081526020016000815260200160008152602001600081525090565b6040518060c001604052806060815260200160608152602001606081526020016000815260200160008152602001606081525090565b6040518060e001604052806000815260200160608152602001606081526020016060815260200160608152602001600081526020016000600e8111156127f957fe5b6129aa91905b808211156128785760008155600101612996565b90565b600082601f8301126129bd578081fd5b81356001600160401b03808211156129d3578283fd5b604051601f8301601f1916810160200182811182821017156129f3578485fd5b604052828152925082848301602001861015612a0e57600080fd5b8260208601602083013760006020848301015250505092915050565b600060208284031215612a3b578081fd5b81356001600160401b03811115612a50578182fd5b612a5c848285016129ad565b949350505050565b600080600080600060a08688031215612a7b578081fd5b85356001600160401b0380821115612a91578283fd5b612a9d89838a016129ad565b96506020880135915080821115612ab2578283fd5b612abe89838a016129ad565b95506040880135915080821115612ad3578283fd5b612adf89838a016129ad565b94506060880135915080821115612af4578283fd5b50612b01888289016129ad565b95989497509295608001359392505050565b60008060008060008060c08789031215612b2b578081fd5b86356001600160401b0380821115612b41578283fd5b612b4d8a838b016129ad565b97506020890135915080821115612b62578283fd5b612b6e8a838b016129ad565b96506040890135915080821115612b83578283fd5b612b8f8a838b016129ad565b9550606089013594506080890135935060a0890135915080821115612bb2578283fd5b50612bbf89828a016129ad565b9150509295509295509295565b600080600080600080600080610100898b031215612be8578182fd5b88356001600160401b0380821115612bfe578384fd5b612c0a8c838d016129ad565b995060208b0135915080821115612c1f578384fd5b612c2b8c838d016129ad565b985060408b0135915080821115612c40578384fd5b612c4c8c838d016129ad565b975060608b0135965060808b0135955060a08b0135945060c08b0135935060e08b0135915080821115612c7d578283fd5b50612c8a8b828c016129ad565b9150509295985092959890939650565b60008060408385031215612cac578182fd5b82356001600160401b03811115612cc1578283fd5b612ccd858286016129ad565b95602094909401359450505050565b600060208284031215612ced578081fd5b5035919050565b60008060008060008060c08789031215612d0c578182fd5b8635955060208701356001600160401b0380821115612d29578384fd5b612d358a838b016129ad565b96506040890135915080821115612d4a578384fd5b612d568a838b016129ad565b95506060890135915080821115612d6b578384fd5b612d778a838b016129ad565b94506080890135915080821115612d8c578384fd5b50612d9989828a016129ad565b92505060a087013590509295509295509295565b600080600060608486031215612dc1578283fd5b8335925060208401356001600160401b03811115612ddd578283fd5b612de9868287016129ad565b925050604084013590509250925092565b60008060408385031215612e0c578182fd5b50508035926020909101359150565b60008151808452612e33816020860160208601613243565b601f01601f19169290920160200192915050565b60008251612e59818460208701613243565b9190910192915050565b60008083546001811660008114612e815760018114612e9857612ec8565b60ff198216855260028204607f1685019250612ec8565b6002820486855260208520855b82811015612ec157815488820152600190910190602001612ea5565b5050850192505b5090949350505050565b600060c08252612ee560c0830189612e1b565b8281036020840152612ef78189612e1b565b8381036040850152612f098189612e1b565b91505085606084015284608084015282810360a0840152612f2a8185612e1b565b9998505050505050505050565b6000610100808352612f4b8184018c612e1b565b8381036020850152612f5d818c612e1b565b9150508281036040840152612f72818a612e1b565b8860608501528760808501528660a08501528560c085015283810360e0850152612f9c8186612e1b565b9c9b505050505050505050505050565b6000610120808352612fc08184018d612e1b565b8381036020850152612fd2818d612e1b565b9150508281036040840152612fe7818b612e1b565b8960608501528860808501528760a08501528660c085015261300886613273565b8560e08501528381036101008501526130218186612e1b565b9d9c50505050505050505050505050565b60208082526014908201527303737ba1032b737bab3b41038bab0b73a34ba3c960651b604082015260600190565b90815260200190565b600087825260c0602083015261308260c0830188612e1b565b82810360408401526130948188612e1b565b83810360608501526130a68188612e1b565b91505082810360808401526130bb8186612e1b565b9150508260a0830152979650505050505050565b600088825260e060208301526130e860e0830189612e1b565b82810360408401526130fa8189612e1b565b838103606085015261310c8189612e1b565b91505082810360808401526131218187612e1b565b9150508360a0830152600f831061313457fe5b8260c083015298975050505050505050565b60006101008a83528060208401526131608184018b612e1b565b8381036040850152613172818b612e1b565b91505082810360608401526131878189612e1b565b83810360808501526131998189612e1b565b925050508460a08301526131ac84613273565b8360c08301526131bb83613273565b8260e08301529998505050505050505050565b60006101008a83528060208401526131e88184018b612e1b565b83810360408501526131fa818b612e1b565b915050828103606084015261320f8189612e1b565b83810360808501526132218189612e1b565b60a085019790975250505060c081019290925260e09091015295945050505050565b60005b8381101561325e578181015183820152602001613246565b8381111561326d576000848401525b50505050565b600f811061327d57fe5b5056fea264697066735822122072cd384bcbee54869de22b32323479554a8879dbed977692b441322ad429c08964736f6c63430006010033",
  "source": "pragma solidity ^0.6.1;\r\n pragma experimental ABIEncoderV2;\r\n import \"./admin.sol\";\r\n\r\n contract Supplier {\r\n     \r\n    enum st{supplier,manufacture,distributer,retailer,admin,approved,rejected,requested,at_supplier,at_manufacture,at_ditributer,at_retailer,received,a,canceled}\r\n    st status;\r\n\r\n     struct materialdetails{\r\n    string supplierid;\r\n    string materialid;\r\n    string materialname;\r\n    uint quantity;\r\n    uint cost;\r\n    string image;\r\n}\r\nevent SupplierAdditems(string supplierid, string  materialid,string materialname,uint quantity, uint cost,string image);\r\n    mapping(string=>materialdetails)public  slist;\r\n\r\nfunction supplier_add_materils(string memory _supplierid,string memory _materialid,string memory _materialname,uint _quantity,uint _cost,string memory _image) public{\r\n     materialdetails memory temp = materialdetails(_supplierid,_materialid,_materialname,_quantity,_cost,_image);\r\n        slist[_materialid] = temp;\r\n        emit SupplierAdditems(_supplierid,_materialid,_materialname,_quantity,_cost,_image);\r\n}\r\n  function incrementsup(string memory _materialid,uint _quantity) public{\r\n   slist[_materialid].quantity=    slist[_materialid].quantity+_quantity;\r\n }\r\n function approvestatus_sup(uint requestid,string memory _materialid,uint _quantity)public returns(uint){\r\nrequire( slist[_materialid].quantity> req[requestid].quantity,\"not enough quantity \");\r\n      req[requestid].status=st.approved;\r\n      req[requestid].status1=st.at_supplier;\r\n     slist[_materialid].quantity=    slist[_materialid].quantity-_quantity;\r\n     \r\n     return 1;\r\n    }\r\n   \r\n  function rejectstatus_sup(uint requestid)public{\r\n      req[requestid].status=st.rejected;\r\n }\r\n\r\n struct invoice{\r\n     uint requestid;\r\n     string from1;\r\n     string to;\r\n     string materialid;\r\n     string name;\r\n     uint quantity;\r\n     uint cost;\r\n     uint totalcost;\r\n }\r\n mapping (uint=>invoice)public ginvoice;\r\n function addinvoice(uint _requestid,string memory _from1, string memory _to, string memory _materialid, string memory _name, uint _quantity)public{\r\n  uint totalcost=slist[_materialid].cost*_quantity;\r\n   invoice memory temp  =invoice(_requestid,_from1,_to,_materialid,_name,_quantity,slist[_materialid].cost,totalcost);\r\n   ginvoice[_requestid]=temp;\r\n }\r\n \r\nstruct products{\r\n     string manufactureid;\r\n     string productID;\r\n     string productname;\r\n     uint manufacturedate;\r\n     uint expierydate;\r\n     uint quantity;\r\n     uint cost;\r\n     st status;\r\n     string image;\r\n  }\r\n  mapping(string => products) public prduct  ;\r\n event manufactureproducts(string manufactureid, string  productID,string productname,uint manufacturedate, uint expierydate,uint quantity,uint cost,string image);\r\n function manufacture_add_products(string memory _manufactureid,string memory _productID,string memory _productname,uint _manufacturedate,uint _expierydate ,uint _quantity,uint _cost,string memory _image) public{\r\n     products memory temp = products(_manufactureid,_productID,_productname,_manufacturedate,_manufacturedate+_expierydate * 4 weeks,_quantity,_cost,st.at_manufacture,_image);\r\n     prduct[_productID] = temp;\r\n     emit manufactureproducts(_manufactureid,_productID,_productname,_manufacturedate,prduct[_productID].expierydate,_quantity,_cost,_image);\r\n   }\r\n  function receivedmat(uint requestid) public{\r\n     req[requestid].status1=st. at_manufacture;\r\n }\r\n \r\n function inccreaseman_product(string memory _productID,uint _quantity) public{\r\n     prduct[_productID].quantity=prduct[_productID].quantity+_quantity;\r\n }\r\n   struct manufactureinvoice{\r\n     uint requestid;\r\n     string from1;\r\n     string to;\r\n     string productID;\r\n     string name;\r\n     uint quantity;\r\n     uint cost;\r\n     uint totalcost;\r\n }\r\n mapping (uint=>manufactureinvoice)public manuinvoice;\r\n function manufacturinvoice(uint _requestid,string memory _from1, string memory _to, string memory _productID, string memory _name, uint _quantity)public{\r\n  uint totalcost=prduct[_productID].cost*_quantity;\r\n   manufactureinvoice memory temp  =manufactureinvoice(_requestid,_from1,_to,_productID,_name,_quantity,prduct[_productID].cost,totalcost);\r\n   manuinvoice[_requestid]=temp;\r\n }\r\n function cancelrequest(uint requestid)public{\r\n      req[requestid].status=st.canceled;\r\n }\r\n  struct reqsup{\r\n      uint requestid;\r\n      string manufactureid;\r\n      string supplierid;\r\n      string materialid;\r\n      string materialname;\r\n      uint quantity;\r\n      st status;\r\n       st status1;\r\n  } \r\n uint requestid;\r\n  mapping (uint=>reqsup) public req;\r\nevent request_to_suppliers(uint requestid,string manufactureid, string supplierid, string materialid, string materialname, uint quantity);\r\nfunction request_to_supplier(string memory _manufactureid,string memory _supplierid,string memory _materialid,string memory _materialname,uint _quantity)public{\r\n uint requestid=requestid++;\r\n    reqsup memory temp=reqsup(requestid,_manufactureid,_supplierid,_materialid,_materialname,_quantity,st.requested,st.a);\r\n    req[requestid]=temp;\r\n    emit request_to_suppliers(requestid,_manufactureid,_supplierid,_materialid,_materialname,_quantity);\r\n}\r\n\r\n\r\nfunction addreqto_suplier(uint requestid,string memory _manufactureid,uint _quantity)public{\r\n    require(req[requestid].requestid==requestid&& req[requestid].status==st.requested&&keccak256(abi.encodePacked(req[requestid].manufactureid))==keccak256(abi.encodePacked(_manufactureid))); \r\n    req[requestid].quantity=_quantity;\r\n}\r\n\r\n function approvestatus_mun(uint requestid,string memory _productID,uint _quantity)public{\r\n     require(prduct[_productID].quantity>=disreq[requestid].quantity);\r\n      disreq[requestid].status=st.approved;\r\n      disreq[requestid].status1=st.at_manufacture;\r\n\r\n     prduct[_productID].quantity=prduct[_productID].quantity-_quantity;\r\n\r\n }\r\n  function rejectstatus_man(uint requestid)public{\r\n      disreq[requestid].status=st.rejected;\r\n }\r\n \r\n//====================DISTRIBUTER==================\r\nstruct dis_products{\r\n     string distributerID;\r\n     string productID;\r\n     string productname;\r\n     uint manufacturedate;\r\n     uint expierydate;\r\n     uint quantity;\r\n     uint cost;\r\n     st status;\r\n     string image;\r\n }\r\n \r\n mapping(string => dis_products) public distributer_product; \r\n event Distributer_products(string distributerID, string  productID,string productname,uint manufacturedate, uint expierydate,uint quantity,uint cost,string image);\r\n function distributer_add_products(string memory _distributerID,string memory _productID,string memory _productname,uint _quantity, uint _cost,string memory _image) public{\r\n\r\n     dis_products memory temp = dis_products(_distributerID,_productID,_productname,prduct[_productID].manufacturedate,prduct[_productID].expierydate,_quantity,_cost,st.at_ditributer,_image);\r\n        distributer_product[_productID] = temp;\r\n        emit Distributer_products(_distributerID,_productID,_productname,prduct[_productID].manufacturedate,prduct[_productID].expierydate,_quantity,_cost,_image);\r\n}\r\n   function increase_dis_product(string memory _productID,uint _quantity) public{\r\n     distributer_product[_productID].quantity=distributer_product[_productID].quantity+_quantity;\r\n }\r\n   struct distributerinvoice{\r\n     uint requestid;\r\n     string from1;\r\n     string to;\r\n     string productID;\r\n     string name;\r\n     uint quantity;\r\n     uint cost;\r\n     uint totalcost;\r\n }\r\n mapping (uint=>distributerinvoice)public disinvoice;\r\n function distinvoice(uint _requestid,string memory _from1, string memory _to, string memory _productID, string memory _name, uint _quantity)public{\r\n  uint totalcost=distributer_product[_productID].cost*_quantity;\r\n   distributerinvoice memory temp  =distributerinvoice(_requestid,_from1,_to,_productID,_name,_quantity,distributer_product[_productID].cost,totalcost);\r\n   disinvoice[_requestid]=temp;\r\n }\r\n\r\n\r\n  struct reqmanu{\r\n      uint requestid;\r\n      string manufactureid;\r\n      string distributerID;\r\n      string productID;\r\n      string productname;\r\n      uint quantity;\r\n      st status;\r\n      st status1;\r\n  }\r\n  mapping (uint=>reqmanu) public disreq;\r\nevent distributer_to_manufacture(uint requestid,string manufactureid, string distributerID, string productID, string productname, uint quantity);\r\nfunction request_to_manufacture(string memory _manufactureid,string memory _distributerID,string memory _productID,string memory _productname,uint _quantity)public{\r\n uint requestid=requestid++;\r\n\r\n    reqmanu memory temp=reqmanu(requestid,_manufactureid,_distributerID,_productID,_productname,_quantity,st.requested,st.a);\r\n    disreq[requestid]=temp;\r\n   emit distributer_to_manufacture(requestid,_manufactureid,_distributerID,_productID,_productname,_quantity);\r\n}\r\n\r\nfunction addreqto_manufacture(uint requestid,string memory _distributerID,uint _quantity)public{\r\n        require(disreq[requestid].requestid==requestid&& disreq[requestid].status==st.requested&&keccak256(abi.encodePacked(disreq[requestid].distributerID))==keccak256(abi.encodePacked(_distributerID))); \r\n\r\n  disreq[requestid].quantity=_quantity;\r\n}\r\n function cancelrequestatdistributer(uint requestid)public{\r\n      disreq[requestid].status=st.canceled;\r\n }\r\n function approvestatus_dis(uint requestid,string memory _productID,uint _quantity)public{\r\n     require(distributer_product[_productID].quantity>=retailerreq[requestid].quantity);\r\n      retailerreq[requestid].status=st.approved;\r\n    distributer_product[_productID].quantity=distributer_product[_productID].quantity-_quantity;\r\n\r\n }\r\n  function rejectstatus_dis(uint requestid)public{\r\n      retailerreq[requestid].status=st.rejected;\r\n }\r\n\r\nfunction receivedatdistributer(uint requestid)public{\r\n      disreq[requestid].status=st.at_ditributer;\r\n\r\n}\r\n\r\n//=========================RETAILER================================\r\n\r\nstruct retaileraddproducts{\r\n      string retailerid;\r\n     string productID;\r\n     string productname;\r\n     uint manufacturedate;\r\n     uint expierydate;\r\n     uint quantity;\r\n     uint cost;\r\n     st status;\r\n     string image;\r\n    }\r\nmapping (string =>retaileraddproducts) public retailerpro;\r\n event retailer_add_productss(string retailerid, string  productID,string productname,uint manufacturedate, uint expierydate,uint quantity,uint cost,string image);\r\n function retailer_add_products(string memory _retailerid,string memory _productID,string memory _productname,uint _quantity,uint _cost,string memory _image) public{\r\n     retaileraddproducts memory temp = retaileraddproducts(_retailerid,_productID,_productname,prduct[_productID].manufacturedate,prduct[_productID].expierydate,_quantity,_cost,st.at_retailer,_image);\r\n        retailerpro[_productID] = temp;\r\n        emit retailer_add_productss(_retailerid,_productID,_productname,prduct[_productID].manufacturedate,prduct[_productID].expierydate,_quantity,_cost,_image);\r\n}\r\n  function decrease_retailer_product(string memory _productID,uint _quantity) public{\r\n       retailerpro[_productID].quantity=retailerpro[_productID].quantity-_quantity;\r\n }\r\n  function increase_retailer_product(string memory _productID,uint _quantity) public{\r\n      retailerpro[_productID].quantity=retailerpro[_productID].quantity+_quantity;\r\n }\r\n\r\nstruct reqdistributer{\r\n    uint requestid;\r\n      string distributerID;\r\n      string retailerid;\r\n      string productID;\r\n      string productname;\r\n      uint quantity;\r\n      st status;\r\n  }\r\n  mapping (uint=>reqdistributer) public retailerreq;\r\nevent retailer_to_distributer(uint requestid,string distributerID, string retailerid, string productID, string productname, uint quantity);\r\nfunction request_to_distributer(string memory _distributerID,string memory _retailerid,string memory _productID,string memory _productname,uint _quantity)public{\r\n uint requestid=requestid++;\r\n    reqdistributer memory temp=reqdistributer(requestid,_distributerID,_retailerid,_productID,_productname,_quantity,st.requested);\r\n    retailerreq[requestid]=temp;\r\n   emit retailer_to_distributer(requestid,_distributerID,_retailerid,_productID,_productname,_quantity);\r\n}\r\nfunction addreqto_distributer(uint requestid,uint _quantity)public{\r\n    require( retailerreq[requestid].status==st.requested);\r\n  retailerreq[requestid].quantity=_quantity;\r\n}\r\nfunction cancelrequestatretailer(uint requestid)public{\r\n      retailerreq[requestid].status=st.canceled;\r\n }\r\n }",
  "sourcePath": "C:\\Users\\Administrator\\Desktop\\Birth-Death\\Truffle\\contracts\\chain.sol",
  "compiler": {
    "name": "solc",
    "version": "0.6.1+commit.e6f7d5a4.Emscripten.clang"
  },
  "schemaVersion": "3.0.23",
  "updatedAt": "2020-02-14T08:04:22.987Z",
  "networkType": "ethereum",
  "devdoc": {
    "methods": {}
  },
  "userdoc": {
    "methods": {}
  }
}